:020000040000FA
:1000000018F09FE518F09FE518F09FE518F09FE5C0
:1000100018F09FE50000A0E1F0FF1FE518F09FE554
:100020005800000040000000641D0000480000006F
:100030004C000000000000005000000054000000D0
:10004000FEFFFFEAFEFFFFEAFEFFFFEAFEFFFFEA18
:10005000FEFFFFEAFEFFFFEA94009FE5AA10A0E37F
:100060005520A0E32430A0E3043080E50130A0E374
:10007000003080E50C1080E50C2080E5083090E52C
:10008000013B13E2FCFFFF0A0330A0E3003080E5F0
:100090000C1080E50C2080E558009FE50410A0E3DB
:1000A000041080E50210A0E3001080E548009FE501
:1000B000DBF021E300D0A0E1080040E2D7F021E32B
:1000C00000D0A0E1080040E2D1F021E300D0A0E19F
:1000D000080040E2D2F021E300D0A0E1030C40E2AE
:1000E000D3F021E300D0A0E1030C40E20C009FE537
:1000F00010FF2FE180C01FE000C01FE0D03C004097
:1001000004010000000000EB2E0000EB2C008FE249
:10011000000C90E800A08AE000B08BE001704AE299
:100120000B005AE10000001A260000EB0F00BAE8AD
:1001300018E04FE2010013E303F0471013FF2FE133
:10014000D01D0000F01D0000102052E27800B02801
:100150007800A128FBFFFF8A822EB0E13000B02892
:100160003000A12800409045004081451EFF2FE14E
:100170000030B0E30040B0E30050B0E30060B0E313
:10018000102052E27800A128FCFFFF8A822EB0E105
:100190003000A128003081451EFF2FE101C08FE211
:1001A0001CFF2FE11FB5059886460FBC009C02B0CE
:1001B0007047000001C08FE21CFF2FE130B475468C
:1001C000AE4630BC70470000A60600EB0210A0E16E
:1001D000F1FFFFEB1CC09FE50FC08CE001001CE3AA
:1001E0000DE08F120FE0A0011CFF2FE101C08FE294
:1001F0001CFF2FE101F068FDD10200007847C046E6
:1002000003002DE9EAFFFFEB0300BDE8B50600EBB4
:100210000C009FE50C109FE504209FE508309FE54A
:100220001EFF2FE1B0360040B8390040B036004024
:1002300001002DE900204DE90000A0E104D04DE2CD
:100240000100BDE8004020E900E0A0E10100BDE8B8
:10025000FF7F4EE90000A0E13CE04EE200004FE1EC
:1002600001002EE94C009FE5000090E501002EE919
:1002700044009FE5001090E500E081E53C009FE52B
:100280000FE0A0E110FF2FE12C009FE5000090E5BA
:1002900000E090E51C009FE50200BEE8001080E54C
:1002A0000100BEE800F06FE1FF7FDEE80000A0E1A2
:1002B0003CE09EE504F05EE2A000004064000040E7
:1002C0000506000000205BE0410041185E4A515CD9
:1002D000002902D0012950D127E0410041185A4A93
:1002E0008918897800290CD15849896842008218F8
:1002F000554BD218537801229A409143534A91604A
:1003000012E041004118504A8918897801290BD11F
:100310004E498968420082184B4BD218537801220B
:100320009A401143494A916028E041004118464AE9
:100330008918897800290CD14449896942008218BA
:10034000414BD218537801229A4091433F4A916120
:1003500012E0410041183C4A8918897801290BD1E3
:100360003A49896942008218374BD21853780122E2
:100370009A401143354A916100E0C046C046401C96
:100380003349098888429FDB70470200002A02D067
:10039000012A0CD105E02D4B1B68CB40D807C00FBC
:1003A00005E02A4B1B69CB40D807C00FC046C046AA
:1003B000704710B4002802D0012827D113E0002A8A
:1003C00007D1224BDB6801248C4023431F4CE360A0
:1003D00008E0012A06D11D4B5B6801248C402343B1
:1003E0001A4C636012E0002A07D1184BDB69012424
:1003F0008C402343154CE36108E0012A06D1134BDE
:100400005B6901248C402343104C6361C04610BCDF
:10041000704770B505000E0031002800FFF7B5FFEA
:100420000400012C05D1002231002800FFF7C1FF94
:1004300006E0002C04D1012231002800FFF7B9FFAB
:1004400070BC08BC1847000000000040008002E0BB
:100450005A00004010B5012211210020FFF7A9FF2A
:1004600010BC08BC184710B512210020FFF7D1FFBF
:1004700010BC08BC1847C046C046FEE77D20C0003F
:100480001B49C860080040680121084318494860BA
:10049000704710B5E120400200F038F8FFF712FF76
:1004A000FFF7ECFF01201349087010BC08BC184787
:1004B00084B0FFF7EEFF64200F4902220023009270
:1004C0000191029032220DA10F4800F0DAF900F0FC
:1004D000B1FDC046FEE706484068022108430449D2
:1004E000486008004068022188430149486070471D
:1004F000008000E000C11FE05C0000405541525404
:100500005F5461736B3100007704000070B5050023
:100510005A48006801210904084358490860080046
:100520000068012189040843544908602E01310004
:10053000534801F0E5FB04005248007B802108434A
:10054000504908730C70240A0C71072008720320AC
:1005500008734814C068802188434B49C86008006C
:100560000069802108434849086148484849486073
:1005700027204849486043480079032108434149FE
:10058000087170BC08BC1847010043480078012876
:1005900009D10020404A107040480078000600163B
:1005A0000870012070470020FCE7364A1070704741
:1005B00070B505000C003A480078002820D1002DC5
:1005C0001ED038490C7036490C70002303E0E85CFB
:1005D0003549C8545B1CA342F9DB31490A780978D4
:1005E000491E2F4E31702F490978891A2E4A515CC5
:1005F00009060816FFF7D9FF012070BC08BC184790
:100600000020FAE710B41F4A107A2EE00207120FFA
:10061000022A0BD0042A1CD0062A02D00C2A20D190
:1006200016E0184A127D110609161BE01C4A1278C2
:10063000002A0CDD1A4A13781278521E184C2270C8
:10064000184A1278D21A184B9A5C0E4B1A7009E0AD
:10065000C0460C4A1278114B1A7001220E4B1A70C8
:1006600000E0C046C046074A107AC207D20F002AEF
:10067000CCD00022044B1A6310BC704700C002E0CB
:1006800000879303000001E000F0FFFF300200004C
:1006900000F1FFFF00F2FFFF61000040600000403A
:1006A0006300004062000040BC00004010B5FE48FE
:1006B00001F086F8FD4801F083F8FD4801F080F86C
:1006C000FC4801F07DF8FC4801F07AF8FB4801F0A5
:1006D00077F8F648FA490860F548FA49086010BC0E
:1006E00008BC184710B5040001F01EF9F648006870
:1006F000401CF5490860F5480068002808D1F34817
:1007000004600800006801280ED1FFF7CFFF0BE05E
:10071000EF480068002807D1EC480068C06AE16A29
:10072000884201D8E9480460EA480068401CE94969
:100730000860E948006840686168884204D8E06C55
:100740000A30E54909684860211DD74801F054F88E
:1007500001F0F5F8DE480068002807D0DB480068A3
:10076000C06AE16A884201D201F0A6FB10BC08BC55
:100770001847FFB581B00E000A9F0C9C216B0398AF
:10078000401E8000081800900098C008C00000902B
:10079000002E11D0002508E0715D20003430415555
:1007A000705D002800D102E06D1C082DF4D3C04616
:1007B00000213B20015502E0002134200155042F87
:1007C00000D30327E762E76300202064201D01F0C7
:1007D00004F82000183001F000F824610420C01B48
:1007E000A061646200206064002148200155049AE1
:1007F000684603C801F030F820600B98002801D04B
:100800000B98046005B0F0BC08BC1847FFB585B074
:100810001700B80001F0DFF80600002E0BD05020C2
:1008200001F0D9F80400002C01D0266304E0300068
:1008300001F026F900E00024002C10D000220EA8C0
:1008400003C86B4613C303923A00089B05A803C86C
:10085000FFF78FFF2000FFF745FF012501E000258E
:10086000ED43280009B0F0BC08BC184710B501F0F2
:100870005BF89A48046801F062F8200010BC08BCDC
:100880001847FFB585B01700B80001F0A4F80600BE
:10089000002E0BD0502001F09EF80400002C01D057
:1008A000266304E0300001F0EBF800E00024002CA7
:1008B00017D01098E064FFF7D9FFE16C4018606032
:1008C0002000FFF70FFF00220EA803C86B4613C3DA
:1008D00003923A00089B05A803C8FFF74AFF0125C9
:1008E00001E00025ED43280009B0F0BC08BC184722
:1008F000734909680968002901D1012100E000213C
:10090000002904D00021C943754A116006E06C49F2
:100910000968C968C868724A41681160704710B5B3
:100920000400206B01F0ACF8200001F0A9F810BC25
:1009300008BC184770B5050000F0F6FF002D02D185
:100940006248006800E028000400201D00F070FFED
:10095000A06A002803D02000183000F069FF5D482D
:100960000068401C5B49086058480068844209D10F
:10097000211D514800F034FF5A480068401C594975
:10098000086009E050480068401E4F490860200098
:10099000FFF7C5FFFFF7ACFF00F0D1FF4C48006840
:1009A000002805D049480068844201D101F084FA4A
:1009B00070BC08BC1847F8B5002000904A48006891
:1009C00000286FD145480068451C44480560002D4B
:1009D0000FD13B4807683B480068394908603948EF
:1009E000076042480068401C40490860FFF780FFEC
:1009F000C0463B48006885423FD3C0463048006847
:100A00000068002801D1012000E00020002804D067
:100A10000020C043324908602EE029480068C068C1
:100A2000C4686668B54202D22D48066024E0201DE5
:100A300000F0FEFEA06A002803D02000183000F06D
:100A4000F7FEE06C40196060234800684068616808
:100A5000884204D8E06C0A301F4909684860211DAB
:100A6000114800F0C9FE1949606809684968884260
:100A7000C4D201200090C1E7C04614480068C06A93
:100A8000142148431A490858012801D9012000902F
:100A900018480068002801D1FFF7E5FC16480068F7
:100AA00000282BE02EE0000038020040D401004076
:100AB000E8010040FC010040100200402402004018
:100AC000680000406C00004074000040640000407A
:100AD00080000040900000409800004078000040F6
:100AE00094000040700000409C0000408C000040DA
:100AF00084010040840000408800004001D00120B3
:100B0000009006E0FE480068401CFD490860FFF7C1
:100B1000AAFC0098F8BC08BC184770B50024002651
:100B200000F002FFF7480068401EF6490860080020
:100B3000006800284CD1F4480068002848D021E023
:100B4000F248C068C4682000183000F071FE201D13
:100B500000F06EFEEE48006840686168884204D884
:100B6000E06C0A30EA4909684860211DE94800F054
:100B700043FEE949E06A0968C96A884202D3012054
:100B8000E6490860E1480068002801D1012000E042
:100B900000200028D4D0002C01D0FFF7A9FED848AF
:100BA0000568002D0DD0C046FFF705FF002802D0D4
:100BB0000120DA4908606D1E002DF5D10020D049D2
:100BC0000860D6480068002802D0012601F074F9B8
:100BD00000F0B5FE300070BC08BC1847F8B5050041
:100BE0000E00CF480768CC480068001D00F020FECA
:100BF000681C002808D1002E06D0C7480168091DCE
:100C0000C84800F0EDFD1AE07C19C3480068446054
:100C1000BC4207D2C0480168091DC348006800F003
:100C2000EBFD0CE0BC480168091DC048006800F0FD
:100C3000E3FDBF480068844201D2BD480460F8BCAF
:100C400008BC1847AF480068401CAE4908607047B0
:100C5000F3B581B0040000200090FFF7F3FFB04827
:100C60000668216802980D182068B04207D92068EC
:100C7000A8420BD9B54209D90120009006E02068AE
:100C8000A84201D8B54201D9012000902560009802
:100C9000002803D0A81B0021FFF7A0FFFFF73DFFAE
:100CA0000700002F01D101F007F9FEBC08BC18476E
:100CB00070B504000025002C08D0FFF7C3FF002109
:100CC0002000FFF78BFFFFF728FF0500002D01D163
:100CD00001F0F2F870BC08BC184770B5040000F0D1
:100CE00023FE002C02D18C48006800E020000600A2
:100CF000F56A00F024FE280070BC08BC184710B448
:100D000001000023002902D1834C246800E00C007C
:100D10002200D06A10BC7047FEB507000D0000200D
:100D20000090042D00D3032500F0FEFD002F02D11A
:100D30007948006800E038000400E66BAE4248D015
:100D4000B5420BD97448006884420DD072480068DF
:100D5000C06AA84208D80120009005E06E480068EB
:100D6000844201D101200090E06A0190E16AE06BC9
:100D7000884200D1E562E563A069C00FC007002882
:100D800002D10420401BA0616169142201985043E4
:100D9000684A8018814201D1012000E0002000282B
:100DA00011D0201D00F044FD59480068406861687A
:100DB000884204D8E06C0A30554909684860211D12
:100DC000544800F019FD0098002801D001F074F893
:100DD000C04600F0B4FDFEBC08BC18474948006896
:100DE000002803D001204D49086007E000204B494E
:100DF00008604848C068C06847490860704770B5D7
:100E0000050000F091FD002D02D14348006800E08C
:100E100028000400201D00F00BFDA06A002803D06C
:100E20002000183000F004FD211D3E4800F0D8FCE1
:100E30004820005D012802D100214820015500F022
:100E40007EFD3D480068002805D000F06DFDFFF7ED
:100E50004FFD00F074FD30480068844212D13648DE
:100E60000068002802D001F027F80BE02D48006848
:100E700025490968884203D100202749086001E01C
:100E8000FFF7ACFF70BC08BC184710B4010000208D
:100E90000A00244C5369A34201D1012300E000233E
:100EA000002B11D0194C936AA34201D1012300E019
:100EB0000023002B08D1936A002B01D1012300E00D
:100EC0000023002B00D0012010BC704770B5050036
:100ED0002C0011480068844243D0002C41D000F01F
:100EE00023FD2000FFF7D1FF002838D0201D00F09F
:100EF0009FFC0748006840686168884223D81DE06D
:100F0000840000409C00004074000040FC01004050
:100F10009800004038020040640000408800004013
:100F200078000040240200406C000040680000404F
:100F3000940000408401004080000040E06C0A30D2
:100F4000FE4909684860211DFD4800F055FCFD4937
:100F5000E06A0968C96A884201D300F0ADFF00F079
:100F6000EEFC70BC08BC1847F8B5050000262C0044
:100F700000272000FFF789FF002822D0F2480068F0
:100F8000002819D1EF49E06A0968C96A884200D38C
:100F90000126201D00F04CFCE848006840686168AC
:100FA000884204D8E06C0A30E44909684860211D91
:100FB000E34800F021FC04E021001831E34800F090
:100FC0000FFC3000F8BC08BC184710B516E000F064
:100FD000ABFCDF48C068C468201D00F029FCDD4878
:100FE0000068401EDB490860DB480068401EDA49A3
:100FF000086000F0A4FC2000FFF791FCD6480068D0
:101000000028E4D110BC08BC1847C046FFF7DDFF3C
:10101000FFF72CFCCB490968C96C4018C94909681D
:101020004860C7480068012801D900F045FFFFF774
:1010300011FAEBE73EB56425C04800210B003222CF
:1010400001AC21C40091C5A1C648FFF71AFC0400F9
:10105000012C0CD100F034FFA01EC3490860012010
:10106000C24908600020C249086000F053FC3EBC41
:1010700008BC184710B500F023FF0020BB490860EA
:1010800000F051FC10BC08BC18470021B84A106899
:101090007047B048006870470100002902D1A94894
:1010A000006800E00800020010003430704770B59E
:1010B00004000025FFF7C6FDAE4800680019AD49E1
:1010C0000860FFF72AFD0500280070BC08BC18471F
:1010D00070B505000C009B4801681831280000F02D
:1010E0008BFB01212000FFF779FD70BC08BC18477D
:1010F00070B506000C0015000120C007204391497F
:10110000096888618F4801681831300000F068FB79
:1011100001212800FFF762FD70BC08BC184770B5BC
:101120000600F068C4682000183000F081FB864893
:101130000068002812D1201D00F07AFB7F4800686B
:1011400040686168884204D8E06C0A307B490968CD
:101150004860211D7A4800F04FFB04E0210018315F
:101160007A4800F03DFB7749E06A0968C96A88421D
:1011700004D9012501208049086000E000252800ED
:1011800070BC08BC184770B505000E000120C007F0
:1011900030432860EC68280000F04AFB201D00F076
:1011A00047FB6648006840686168884204D8E06C84
:1011B0000A30624909684860211D614800F01CFB43
:1011C0006049E06A0968C96A884202D901206A490F
:1011D000086070BC08BC184710B5040000F0A4FB00
:1011E00066480068206062480068606000F0A7FB05
:1011F00010BC08BC18476149096801605C4909686E
:101200004160704770B506000C0000F08DFB584837
:1012100002687068131A2068401C002801D100255C
:1012200017E0564930680968884204D070689042D7
:1012300001D801250DE02068984207D92068C01A1E
:1012400020603000FFF7D7FF002502E0002020607B
:10125000012500F074FB280070BC08BC1847012071
:1012600045490860704737490868704770B5050000
:101270002C000026002D41D03249E06A0968C96A75
:10128000884234D2A069C00FC007002805D12D487C
:101290000068C06A0421081AA0611422E06A504361
:1012A000374A80186169814201D1012000E00020A5
:1012B000002816D0201D00F0BBFA22480068C06A42
:1012C000E0621E48006840686168884204D8E06CAB
:1012D0000A301A4909684860211D194800F08CFA43
:1012E00003E018480068C06AE062012606E015497C
:1012F000E06B0968C96A884200D20126300070BCE0
:1013000008BC184770B505002C000026002D47D0FA
:10131000206C401E2064E16BE06A884240D0206C63
:1013200000283DD1201D00F083FAE06BE06204212B
:10133000E06A081AA0610148006823E098000040B4
:1013400038020040640000409C000040FC01004066
:1013500010020040740000407000004049444C45B9
:10136000000000000B1000009400004080000040CE
:101370007800004084000040880000408C0000405D
:101380008401004040686168884204D8E06C0A30FB
:10139000F74909684860211DF64800F02DFA01263A
:1013A000300070BC08BC1847FEB506000F003400C2
:1013B00001200090002E35D0E06BB84201D23D00F4
:1013C00000E0E56BE06AA8422CD0206C012829D10E
:1013D000E06A0190E562A069C00FC007002802D151
:1013E0000420401BA0616169142201985043E24A25
:1013F0008018814201D1012000E00020002811D096
:10140000201D00F015FADA480068406861688842DB
:1014100004D8E06C0A30D64909684860211DD548D7
:1014200000F0EAF9FEBC08BC1847D449096888698D
:10143000D2490968C96A0422511AD04A12689161D6
:101440007047CE480068002806D0CC4909680800DB
:101450004030096C491C0160C8480068704770B58D
:1014600006000D0000F060FAC4480068406C0028D7
:101470000BD10121C148006840300172002D04D019
:101480002800FFF7ABFB00F017FD00F058FA00F062
:101490004BFABA480068446C002C0AD0002E04D0E5
:1014A0000020B6490968486403E0601EB349096832
:1014B00048640021B14800684030017200F03FFAF2
:1014C000200070BC08BC1847FFB581B007001400AD
:1014D0001D0000F029FAA94800684030007A02286F
:1014E00012D0A649096808004430496CB94301602C
:1014F0000121A248006840300172002D04D028006C
:10150000FFF76CFB00F0D8FC00F019FA00F00CFAC1
:10151000002C03D099480068406C20609748006810
:101520004030007A022801D0002608E0934909687B
:10153000080044304A6C02998A4302600126002167
:101540008E4800684030017200F0F9F9300005B0B3
:10155000F0BC08BC1847FFB583B00D0016001F0093
:1015600001200290039C00F0DFF9002F01D0606C95
:1015700038604820005D0190022148200155330069
:1015800000F0B4FC051604080C0E1700606C28432C
:1015900060640FE0606C401C60640BE0656409E00F
:1015A0000198022801D0656401E00020029001E06A
:1015B00000E0C046C0460198012819D1201D00F066
:1015C00037F96B48006840686168884204D8E06C6D
:1015D0000A30674909684860211D664800F00CF927
:1015E0006649E06A0968C96A884201D900F064FC6A
:1015F00000F0A5F9029807B0F0BC08BC1847FFB589
:1016000083B00D0016001F0001200190039C0020F4
:101610000090002F01D0606C38604820005D02907F
:10162000022148200155330000F060FC0516040833
:101630000C0E1700606C284360640FE0606C401C67
:1016400060640BE0656409E00298022801D06564DB
:1016500001E00020019001E000E0C046C046029891
:1016600001282AD146480068002812D1201D00F028
:10167000DFF83F48006840686168884204D8E06C41
:101680000A303B4909684860211D3A4800F0B4F827
:1016900004E0210018313B4800F0A2F83749E06A25
:1016A0000968C96A884208D90C98002802D001212B
:1016B0000C980160012034490860019807B0F0BC23
:1016C00008BC1847F8B505000E002C00002000905B
:1016D0004820075D02210155606C401C6064012FA9
:1016E00028D127480068002812D1201D00F0A0F85A
:1016F0001F48006840686168884204D8E06C0A307E
:101700001B4909684860211D1A4800F075F804E07B
:10171000210018311B4800F063F81849E06A096895
:10172000C96A884206D9002E01D00120306001200C
:1017300015490860F8BC08BC184770B50500002DB5
:1017400002D10E48006800E02800060000F0ECF826
:101750004820805D022804D10021482081550124C1
:1017600000E0002400F0EBF8200070BC08BC184733
:1017700098000040380200408401004064000040AE
:101780009C000040FC01004088000040F8B50400C7
:101790000D00002C02D10948006800E0200006007E
:1017A00000F0C2F805480068476C706CA84370648C
:1017B00000F0C5F83800F8BC08BC184764000040C9
:1017C0000100083141600021C943816001000831F6
:1017D000C160016100210160704700210161704713
:1017E00042684A6093688B609368596091600861B1
:1017F00003685B1C0360704710B402000B685C1C3C
:10180000002C01D1106907E01000083000E04068AA
:10181000446824689C42FAD944684C604C68A160D2
:10182000886041600A611468641C146010BC7047D1
:1018300001000A694B6888689860081D09C85860EB
:101840005068884201D188685060002008611068A3
:10185000401E10601068704730B40300001F0C1D5C
:101860000460001F3F4C0460001F0360001F3E4CDB
:101870000460001F3D4C0460001F3D4C0460001FCD
:101880003C4C0460001F3C4C0460001F3B4C046057
:10189000001F3B4C0460001F3A4C0460001F3A4C90
:1018A0000460001F394C0460001F394C0460001FA5
:1018B00064100460001F0260001F1F240460CC0736
:1018C000E40F002C03D0202504682C430460001F83
:1018D0000024046030BC704700212E4AD1602E489D
:1018E00011008861032151615114C968102291438C
:1018F0002A4AD1601100096910221143274A116157
:101900002749284A11602421274A11600121214AD0
:101910005160704710B5FFF7DFFF00F005FA0020B7
:1019200010BC08BC1847704710B500F0C9FA1F4832
:101930000068401C1D49086010BC08BC184710B561
:101940001A48006800280AD018480068401E174945
:10195000086008000068002801D100F0BDFA10BC42
:1019600008BC1847AAAAAAAA121212121111111120
:1019700010101010090909090808080807070707C7
:10198000060606060505050504040404030303030F
:1019900002020202004000E060EA000000F0FFFFE7
:1019A000F01D000000F1FFFF00F2FFFFA00000406B
:1019B000454AD008C000454A10600022434B5A6097
:1019C000434A444B5A6000221A600100404A4A6070
:1019D0001A000A607047F8B5040000200090FFF775
:1019E00031F93D480068002804D1FFF7E1FF0120EC
:1019F00039490860002C09D008346007400F0028DE
:101A000004D06007400F0821081A0419002C31D0B7
:101A10002F4884422ED22D4F3800056801E02F0058
:101A20002D686868A04202D228680028F7D12948AA
:101A300085421FD038680830009028683860686890
:101A4000001B102810D92E196868001B70606C608C
:101A500071681E4800E00068026852688A42FAD342
:101A6000026832600660C0461C4968680968081A46
:101A70001A490860FFF751F80098F8BC08BC1847ED
:101A800070B506003500002E16D0083D2C00FFF77B
:101A9000D9F861680D4800E00068026852688A421F
:101AA000FAD30268226004600C4960680968401833
:101AB0000A490860FFF731F870BC08BC18470748AE
:101AC000006870477047000054020040A4000040C6
:101AD000F8330000AC000040B8000040B400004003
:101AE000013090E12100004A0020B0E3A03071E015
:101AF0001A00003A203271E00F00003A203471E001
:101B00000100003A00C0A0E3200000EAA03371E029
:101B1000810340200220B2E0203371E00103402025
:101B20000220B2E0A03271E0810240200220B2E047
:101B3000203271E0010240200220B2E0A03171E0C9
:101B4000810140200220B2E0203171E001014020FB
:101B50000220B2E0A03071E0810040200220B2E01B
:101B6000011050E00010A0310200A2E01EFF2FE1A2
:101B7000022111E20010614240C032E00000602208
:101B8000203271E01D00003A203471E00F00003A6D
:101B90000113A0E1203471E03F2382E30B00003AFF
:101BA0000113A0E1203471E03F2682E30700003AF0
:101BB0000113A0E1203471E03F2982E30113A02149
:101BC0003F2C8223003071E21D00002A2113A02146
:101BD000A03371E0810340200220B2E0203371E0A5
:101BE000010340200220B2E0A03271E081024020D7
:101BF0000220B2E0203271E0010240200220B2E077
:101C0000A03171E0810140200220B2E0203171E07A
:101C1000010140200220B2E0EBFFFF2AA03071E07A
:101C2000810040200220B2E0011050E00010A031FD
:101C30000200A2E0CCCFB0E10000604200106122BF
:101C40001EFF2FE1CCCFB0E10000604201402DE942
:101C50000000B0E30000A0E10240BDE81EFF2FE15C
:101C600070477047704700000E50A0E11A0000EB6B
:101C700005E0A0E10050B0E10D10A0E10A30A0E1C4
:101C80000700C0E300D0A0E160D08DE220402DE944
:101C90005EF9FFEB2040BDE80060A0E30070A0E328
:101CA0000080A0E300B0A0E30710C1E305C0A0E1FD
:101CB000C009ACE8C009ACE8C009ACE8C009ACE8B0
:101CC00001D0A0E11EFF2FE110B50400C046C046C0
:101CD0002000FEF793FA10BC08BC184700009FE5EF
:101CE0001EFF2FE14C36004001C08FE21CFF2FE1A8
:101CF00001491820ABDFFEE7260002001EFF2FE19E
:101D00007847C0460020B0E3203171E090FFFF3AF1
:101D1000A03271E085FFFF3A203471E07AFFFF3A8C
:101D200000C0A0E399FFFFEA7847C0466C019FE539
:101D3000000090E500E090E564019FE50200BEE848
:101D4000001080E50100BEE800F06FE1FF7FDEE8F3
:101D50000000A0E13CE09EE504F05EE2000000EF40
:101D60001EFF2FE104E08EE201002DE900204DE985
:101D70000000A0E104D04DE20100BDE8004020E9F0
:101D800000E0A0E10100BDE8FF7F4EE90000A0E116
:101D90003CE04EE200004FE101002EE900019FE52A
:101DA000000090E501002EE9F0009FE5001090E5AD
:101DB00000E081E5EC009FE50FE0A0E110FF2FE1DE
:101DC000D8009FE5000090E500E090E5D0009FE599
:101DD0000200BEE8001080E50100BEE800F06FE1FF
:101DE000FF7FDEE80000A0E13CE09EE504F05EE25B
:101DF00001002DE900204DE90000A0E104D04DE2F2
:101E00000100BDE8004020E900E0A0E10100BDE8DC
:101E1000FF7F4EE90000A0E13CE04EE200004FE110
:101E200001002EE978009FE5000090E501002EE911
:101E300068009FE5001090E500E081E568009FE5FF
:101E40000FE0A0E110FF2FE1000050E30200000AC4
:101E500050009FE50FE0A0E110FF2FE10100A0E39B
:101E600048109FE5000081E544009FE5000080E503
:101E700028009FE5000090E500E090E520009FE548
:101E80000200BEE8001080E50100BEE800F06FE14E
:101E9000FF7FDEE80000A0E13CE09EE504F05EE2AA
:101EA00064000040A0000040DD0D0000B709000004
:101EB000004000E030F0FFFF7847C046A6FFFFEA91
:101EC0007847C04600000FE1801080E301F021E177
:101ED000800000E21EFF2FE17847C04600000FE1BE
:101EE0008000C0E300F021E11EFF2FE17847C046EB
:101EF00001C05EE50C0053E10100003A0C30DEE762
:101F0000000000EA0330DEE783C08EE01CFF2FE113
:101F1000301F000000000040BC000000480100002D
:101F2000EC1F0000BC000040143C000070010000E9
:101F30000010000011010012010013010014010043
:101F40001501001601001701001801001901001AFF
:101F500001001B01001D01001E01001F01011001F5
:101F60000111010112010113010114010115010107
:101F70001601011701011801011901011A01011BC4
:101F800001011D01011E01011F011E0000000000D2
:101F90000000000000000000000000000000000041
:101FA0000000000000000000000000000000000031
:101FB0000000000000000000000000000000000021
:101FC0000000000000000000000000000000000011
:101FD0000F270000000000000000000000000000CB
:0C1FE00000000000F833000000000000CA
:0400000500000104F2
:00000001FF
