:020000040000FA
:1000000018F09FE518F09FE518F09FE518F09FE5C0
:1000100018F09FE50000A0E1F0FF1FE518F09FE554
:100020005800000040000000301B000048000000A5
:100030004C000000000000005000000054000000D0
:10004000FEFFFFEAFEFFFFEAFEFFFFEAFEFFFFEA18
:10005000FEFFFFEAFEFFFFEA94009FE5AA10A0E37F
:100060005520A0E32430A0E3043080E50130A0E374
:10007000003080E50C1080E50C2080E5083090E52C
:10008000013B13E2FCFFFF0A0330A0E3003080E5F0
:100090000C1080E50C2080E558009FE50410A0E3DB
:1000A000041080E50210A0E3001080E548009FE501
:1000B000DBF021E300D0A0E1080040E2D7F021E32B
:1000C00000D0A0E1080040E2D1F021E300D0A0E19F
:1000D000080040E2D2F021E300D0A0E1030C40E2AE
:1000E000D3F021E300D0A0E1030C40E20C009FE537
:1000F00010FF2FE180C01FE000C01FE0C83C00409F
:1001000004010000000000EB2E0000EB2C008FE249
:10011000000C90E800A08AE000B08BE001704AE299
:100120000B005AE10000001A260000EB0F00BAE8AD
:1001300018E04FE2010013E303F0471013FF2FE133
:100140009C1B0000BC1B0000102052E27800B0286D
:100150007800A128FBFFFF8A822EB0E13000B02892
:100160003000A12800409045004081451EFF2FE14E
:100170000030B0E30040B0E30050B0E30060B0E313
:10018000102052E27800A128FCFFFF8A822EB0E105
:100190003000A128003081451EFF2FE101C08FE211
:1001A0001CFF2FE11FB5059886460FBC009C02B0CE
:1001B0007047000001C08FE21CFF2FE130B475468C
:1001C000AE4630BC70470000190600EB0210A0E1FB
:1001D000F1FFFFEB1CC09FE50FC08CE001001CE3AA
:1001E0000DE08F120FE0A0011CFF2FE101C08FE294
:1001F0001CFF2FE101F04EFC750200007847C0465D
:1002000003002DE9EAFFFFEB0300BDE8280600EB41
:100210000C009FE50C109FE504209FE508309FE54A
:100220001EFF2FE1A8360040B0390040A83600403C
:1002300001002DE900204DE90000A0E104D04DE2CD
:100240000100BDE8004020E900E0A0E10100BDE8B8
:10025000FF7F4EE90000A0E13CE04EE200004FE1EC
:1002600001002EE94C009FE5000090E501002EE919
:1002700044009FE5001090E500E081E53C009FE52B
:100280000FE0A0E110FF2FE12C009FE5000090E5BA
:1002900000E090E51C009FE50200BEE8001080E54C
:1002A0000100BEE800F06FE1FF7FDEE80000A0E1A2
:1002B0003CE09EE504F05EE29C00004060000040EF
:1002C0007D05000000205BE041004118514A515C6F
:1002D000002902D0012950D127E0410041184D4AA0
:1002E0008918897800290CD14B4989684200821805
:1002F000484BD218537801229A409143464A916064
:1003000012E041004118434A8918897801290BD12C
:1003100041498968420082183E4BD2185378012225
:100320009A4011433C4A916028E041004118394A03
:100330008918897800290CD13749896942008218C7
:10034000344BD218537801229A409143324A91613A
:1003500012E0410041182F4A8918897801290BD1F0
:100360002D498969420082182A4BD21853780122FC
:100370009A401143284A916100E0C046C046401CA3
:100380002649098888429FDB70470200002A02D074
:10039000012A0CD105E0204B1B68CB40D807C00FC9
:1003A00005E01D4B1B69CB40D807C00FC046C046B7
:1003B000704710B4002802D0012827D113E0002A8A
:1003C00007D1154BDB6801248C402343124CE360BA
:1003D00008E0012A06D1104B5B6801248C402343BE
:1003E0000D4C636012E0002A07D10B4BDB6901243E
:1003F0008C402343084CE36108E0012A06D1064BF8
:100400005B6901248C402343034C6361C04610BCEC
:100410007047000000000040008002E05A000040E9
:100420007D20C0001549C8600800406801210843CC
:1004300012494860704710B5E120400200F022F8F0
:10044000FFF740FFFFF7ECFF01200D49087010BCDB
:1004500008BC1847FFF7EFFF00F02CFDC046FEE791
:100460000648406802210843044948600800406883
:10047000022188430149486070470000008000E085
:1004800000C11FE070B505005A4800680121090449
:10049000084358490860080000680121890408439E
:1004A000544908602E013100534801F00FFB04004D
:1004B0005248007B80210843504908730C70240A7D
:1004C0000C7107200872032008734814C06880214B
:1004D00088434B49C86008000069802108434849A7
:1004E00008614848484948602720484948604348CF
:1004F0000079032108434149087170BC08BC1847C2
:10050000010043480078012809D10020404A1070BA
:10051000404800780006001608700120704700204F
:10052000FCE7364A1070704770B505000C003A4879
:100530000078002820D1002D1ED038490C70364993
:100540000C70002303E0E85C3549C8545B1CA342EF
:10055000F9DB31490A780978491E2F4E31702F494D
:100560000978891A2E4A515C09060816FFF7D9FF47
:10057000012070BC08BC18470020FAE710B41F4ADD
:10058000107A2EE00207120F022A0BD0042A1CD088
:10059000062A02D00C2A20D116E0184A127D110634
:1005A00009161BE01C4A1278002A0CDD1A4A13783F
:1005B0001278521E184C2270184A1278D21A184B10
:1005C0009A5C0E4B1A7009E0C0460C4A1278114B27
:1005D0001A7001220E4B1A7000E0C046C046074A4E
:1005E000107AC207D20F002ACCD00022044B1A6323
:1005F00010BC704700C002E000879303000001E0D8
:1006000000F0FFFF3002000000F1FFFF00F2FFFFEB
:100610005D0000405C0000405F0000405E00004064
:10062000B800004010B5FE4800F0B0FFFD4800F0F3
:10063000ADFFFD4800F0AAFFFC4800F0A7FFFC4812
:1006400000F0A4FFFB4800F0A1FFF648FA4908605B
:10065000F548FA49086010BC08BC184710B50400FA
:1006600001F048F8F6480068401CF5490860F54874
:100670000068002808D1F3480460080000680128D9
:100680000ED1FFF7CFFF0BE0EF480068002807D13D
:10069000EC480068C06AE16A884201D8E948046011
:1006A000EA480068401CE9490860211DDC4800F068
:1006B00089FF01F02AF8E4480068002807D0E148E3
:1006C0000068C06AE16A884201D201F0DBFA10BC1E
:1006D00008BC1847FFB581B00E000A9F0C9C216B27
:1006E0000398401E8000081800900098C008C000C1
:1006F0000090002E11D0002508E0715D20003430FC
:100700004155705D002800D102E06D1C082DF4D326
:10071000C04600213B20015502E000213420015554
:10072000042F00D30327E762E76300202064201D25
:1007300000F039FF2000183000F035FF246104205C
:10074000C01BA06164620020606400214820015544
:10075000049A684603C800F065FF20600B980028E3
:1007600001D00B98046005B0F0BC08BC1847FFB579
:1007700085B01700B80001F014F80600002E0BD069
:100780004C2001F00EF80400002C01D0266304E098
:10079000300001F05BF800E00024002C10D00022B3
:1007A0000EA803C86B4613C303923A00089B05A822
:1007B00003C8FFF78FFF2000FFF750FF012501E07E
:1007C0000025ED43280009B0F0BC08BC18479A4941
:1007D00009680968002901D1012100E000210029F0
:1007E00004D00021C9439A4A116006E09249096881
:1007F000C968C868964A41681160704710B504001E
:10080000206B01F023F8200001F020F810BC08BC98
:10081000184770B5050000F06DFF002D02D1894822
:10082000006800E028000400201D00F0E7FEA06A38
:10083000002803D02000183000F0E0FE8348006854
:10084000401C824908607F480068844209D1211D0C
:10085000774800F0ABFE7F480068401C7D49086087
:1008600009E077480068401E754908602000FFF7DE
:10087000C5FFFFF7ACFF00F048FF73480068002891
:1008800005D070480068844201D101F0FBF970BCCA
:1008900008BC1847F8B5002000906F480068002891
:1008A0005ED16E480068451C6C480560002D0FD174
:1008B00061480768614800685F4908605F480760F1
:1008C00067480068401C66490860FFF780FFC04623
:1008D0005F480068854231D3C046574800680068C9
:1008E000002801D1012000E00020002804D00020D1
:1008F000C0435749086020E04F480068C068C4689A
:100900006668B54202D25248066016E0201D00F02B
:1009100075FEA06A002803D02000183000F06EFE9B
:10092000211D3F4800F04EFE4649E06A0968C96A49
:100930008842D2D301200090CFE7C04641480068EA
:10094000C06A1421484347490858012801D90120A9
:10095000009045480068002801D00120009004E084
:1009600042480068401C414908600098F8BC08BC37
:10097000184770B50024002600F0BCFE3648006819
:10098000401E3549086008000068002841D12C4805
:10099000006800283DD016E02448C068C4682000E4
:1009A000183000F02BFE201D00F028FE211D1C48F1
:1009B00000F008FE2349E06A0968C96A884202D348
:1009C00001202949086019480068002801D1012048
:1009D00000E000200028DFD0002C01D0FFF7F7FE58
:1009E00022480568002D0DD0C046FFF753FF0028B0
:1009F00002D001201C4908606D1E002DF5D1002099
:100A00001A49086018480068002802D0012601F041
:100A100039F900F07AFE300070BC08BC18470000BD
:100A200034020040D0010040E4010040F8010040E1
:100A30000C020040200200406400004068000040BA
:100A400070000040600000407C0000408C000040CE
:100A5000900000406C00004098000040740000408E
:100A60008800004080010040840000408000004079
:100A7000F8B505000E00FA480768FA480068001D3E
:100A800000F0BCFD681C002808D1002E06D0F548F7
:100A90000168091DF44800F089FD1AE07C19F1484D
:100AA00000684460BC4207D2EE480168091DEF4867
:100AB000006800F087FD0CE0EA480168091DEC4879
:100AC000006800F07FFDEB480068844201D2E948ED
:100AD0000460F8BC08BC1847E7480068401CE649B9
:100AE00008607047F3B581B0040000200090FFF764
:100AF000F3FFDB480668216802980D182068B042B1
:100B000007D92068A8420BD9B54209D90120009025
:100B100006E02068A84201D8B54201D90120009022
:100B200025600098002803D0A81B0021FFF7A0FF34
:100B3000FFF71FFF0700002F01D101F0A3F8FEBC53
:100B400008BC184770B504000025002C08D0FFF73A
:100B5000C3FF00212000FFF78BFFFFF70AFF05000E
:100B6000002D01D101F08EF870BC08BC184770B59B
:100B7000040000F0BFFD002C02D1BA48006800E07C
:100B800020000600F56A00F0C0FD280070BC08BC1B
:100B9000184710B401000023002902D1B14C246889
:100BA00000E00C002200D06A10BC7047FEB50700C0
:100BB0000D0000200090042D00D3032500F09AFDC5
:100BC000002F02D1A748006800E038000400E66B5F
:100BD000AE423DD0B5420BD9A248006884420DD048
:100BE000A0480068C06AA84208D80120009005E02B
:100BF0009C480068844201D101200090E06A019085
:100C0000E16AE06B884200D1E562E563A069C00F4C
:100C1000C007002802D10420401BA0616169142292
:100C200001985043954A8018814201D1012000E08B
:100C30000020002806D0201D00F0E0FC211D904877
:100C400000F0C0FC0098002801D001F01BF8C0465D
:100C500000F05BFDFEBC08BC184787480068002810
:100C600003D001208749086027E0002085490860FB
:100C70008548016800E0491E142048437F4A105807
:100C8000002801D1012000E000200028F3D1142227
:100C90004A437A4BD01842685268426002000832D8
:100CA0004368934202D14268526842604268D26807
:100CB0006C4B1A6074480160C046704770B50500FF
:100CC00000F018FD002D02D16648006800E0280001
:100CD0000400201D00F092FCA06A002803D0200030
:100CE000183000F08BFC211D5F4800F05FFC4820AD
:100CF000005D012802D100214820015500F005FDCA
:100D000062480068002805D000F0F4FCFFF75FFDA2
:100D100000F0FBFC53480068844212D15B48006835
:100D2000002802D000F0AEFF0BE04F4800685849A1
:100D30000968884203D100204A49086001E0FFF7B2
:100D40008CFF70BC08BC184710B4010000200A00DA
:100D5000454C5369A34201D1012300E00023002B3D
:100D600011D04C4C936AA34201D1012300E000232F
:100D7000002B08D1936A002B01D1012300E000234E
:100D8000002B00D0012010BC704770B505002C006E
:100D900034480068844219D0002C17D000F0AAFC17
:100DA0002000FFF7D1FF00280ED0201D00F026FC08
:100DB000211D334800F006FC2A49E06A0968C96A27
:100DC000884201D300F05EFF00F09FFC70BC08BCBD
:100DD0001847F8B5050000262C0000272000FFF773
:100DE000B3FF002817D02448006800280ED11D4901
:100DF000E06A0968C96A884200D30126201D00F014
:100E0000FDFB211D1E4800F0DDFB04E02100183130
:100E1000204800F0CBFB3000F8BC08BC184710B5E8
:100E200016E000F067FC1C48C068C468201D00F094
:100E3000E5FB17480068401E154908601748006820
:100E4000401E1649086000F060FC2000FFF7D6FC49
:100E5000124800680028E4D110BC08BC1847000004
:100E60007400004060000040200200406800004024
:100E70006400004090000040980000408001004065
:100E80003402004084000040780000407C000040B4
:100E900070000040F80100400C0200406C0000406F
:100EA000C046FFF7BCFFF74800680128F9D900F0F9
:100EB000E9FEF6E71CB5F44800210B003222009150
:100EC0000190F2A1F348FFF752FC0400012C0CD171
:100ED00000F0DCFEA01EF04908600120EF49086028
:100EE0000020EF49086000F0FBFB1CBC08BC184761
:100EF00010B500F0CBFE0020E849086000F0F9FBD7
:100F000010BC08BC184710B500F0F4FBE4480468B6
:100F100000F0FBFB200010BC08BC18470021E04A91
:100F200010687047DF48006870470100002902D14F
:100F3000DD48006800E0080002001000343070470F
:100F400070B504000025FFF7C7FDD84800680019F8
:100F5000D6490860FFF70DFD0500280070BC08BCED
:100F6000184770B505000C00CF48016818312800FB
:100F700000F028FB01212000FFF77AFD70BC08BCBF
:100F8000184770B506000C0015000120C00720436B
:100F9000C54909688861C44801681831300000F00B
:100FA00005FB01212800FFF763FD70BC08BC184752
:100FB00070B50600F068C4682000183000F01EFB11
:100FC000BB480068002807D1201D00F017FB211D39
:100FD000B84800F0F7FA04E021001831B64800F0F4
:100FE000E5FAB149E06A0968C96A884204D901256D
:100FF0000120B249086000E00025280070BC08BC50
:10100000184770B504000E000120C007304320606F
:10101000E568200000F0F2FA281D00F0EFFA291D23
:10102000A44800F0CFFAA049E86A0968C96A884272
:1010300002D90120A149086070BC08BC184710B54E
:10104000040000F057FB9E48006820609448006848
:10105000606000F05AFB10BC08BC1847984909684A
:1010600001608F4909684160704770B506000C0047
:1010700000F040FB8A4802687068131A2068401C20
:10108000002801D1002517E08D49306809688842A1
:1010900004D07068904201D801250DE02068984284
:1010A00007D92068C01A20603000FFF7D7FF00255D
:1010B00002E000202060012500F027FB280070BC22
:1010C00008BC184701207D490860704776490868C8
:1010D000704770B505002C000026002D36D07249EF
:1010E000E06A0968C96A884229D2A069C00FC007AE
:1010F000002805D16C480068C06A0421081AA06164
:101100001422E06A50435F4A80186169814201D12C
:10111000012000E0002000280BD0201D00F06EFA16
:1011200061480068C06AE062211D624800F04AFA26
:1011300003E05D480068C06AE062012606E05A49A3
:10114000E06B0968C96A884200D20126300070BC91
:1011500008BC184770B505002C000026002D17D0DC
:10116000206C401E2064E16BE06A884210D0206C45
:1011700000280DD1201D00F041FAE06BE06204214F
:10118000E06A081AA061211D4A4800F01BFA0126F6
:10119000300070BC08BC1847FEB506000F003400D4
:1011A00001200090002E2AD0E06BB84201D23D0011
:1011B00000E0E56BE06AA84221D0206C01281ED136
:1011C000E06A0190E562A069C00FC007002802D163
:1011D0000420401BA0616169142201985043294AF0
:1011E0008018814201D1012000E00020002806D0B3
:1011F000201D00F003FA211D2E4800F0E3F9FEBC8B
:1012000008BC184728490968886927490968C96AD4
:101210000422511A244A12689161704722480068DA
:10122000002806D02049096808004030096C491C94
:1012300001601D480068704770B506000D0000F0A1
:1012400059FA19480068406C00280BD10121164852
:10125000006840300172002D04D02800FFF708FC20
:1012600000F010FD00F051FA00F044FA0E4800685A
:10127000446C002C2AD0002E24D000200A49096892
:10128000486423E0800100409400004049444C45FC
:1012900000000000A10E0000900000407C00004013
:1012A000740000407000004060000040800000407A
:1012B0009800004034020040F801004084000040E3
:1012C00088000040601EAC49096848640021AA48B3
:1012D00000684030017200F018FA200070BC08BCB1
:1012E0001847FFB581B0070014001D0000F002FA96
:1012F000A14800684030007A022812D09E4909684F
:1013000008004430496CB943016001219A480068E3
:1013100040300172002D04D02800FFF7A9FB00F037
:10132000B1FC00F0F2F900F0E5F9002C03D092488E
:101330000068406C2060904800684030007A0228C5
:1013400001D0002608E08C490968080044304A6C46
:1013500002998A43026001260021874800684030D4
:10136000017200F0D2F9300005B0F0BC08BC18479B
:10137000FFB583B00D0016001F0001200290039CF2
:1013800000F0B8F9002F01D0606C38604820005D93
:101390000190022148200155330000F08DFC051614
:1013A00004080C0E1700606C284360640FE0606C4A
:1013B000401C60640BE0656409E00198022801D0DC
:1013C000656401E00020029001E000E0C046C046F4
:1013D000019801280ED1201D00F010F9211D674849
:1013E00000F0F0F86449E06A0968C96A884201D9E6
:1013F00000F048FC00F089F9029807B0F0BC08BC86
:101400001847FFB583B00D0016001F0001200190A2
:10141000039C00200090002F01D0606C38604820B1
:10142000005D0290022148200155330000F044FC89
:10143000051604080C0E1700606C284360640FE06A
:10144000606C401C60640BE0656409E0029802284F
:1014500001D0656401E00020019001E000E0C04699
:10146000C046029801281FD145480068002807D1CE
:10147000201D00F0C3F8211D404800F0A3F804E04F
:10148000210018313F4800F091F83B49E06A0968B3
:10149000C96A884208D90C98002802D001210C980A
:1014A0000160012038490860019807B0F0BC08BC11
:1014B0001847F8B505000E002C00002000904820C9
:1014C000075D02210155606C401C6064012F1DD135
:1014D0002B480068002807D1201D00F08FF8211D3F
:1014E000264800F06FF804E021001831254800F08C
:1014F0005DF82149E06A0968C96A884206D9002E68
:1015000001D00120306001201F490860F8BC08BCF0
:10151000184770B50500002D02D11748006800E09B
:101520002800060000F0E6F84820805D022804D17B
:10153000002148208155012400E0002400F0E5F856
:10154000200070BC08BC1847F8B504000D00002C42
:1015500002D10948006800E02000060000F0CAF847
:1015600005480068476C706CA843706400F0CDF8C3
:101570003800F8BC08BC1847600000403402004046
:1015800098000040F801004084000040010008314C
:1015900041600021C943816001000831C1600161DF
:1015A00000210160704700210161704742684A6074
:1015B00093688B60936859609160086103685B1C55
:1015C0000360704710B402000B685C1C002C01D152
:1015D000106907E01000083000E0406844682468A3
:1015E0009C42FAD944684C604C68A16088604160B4
:1015F0000A611468641C146010BC704701000A6919
:101600004B6888689860081D09C85860506888420F
:1016100001D188685060002008611068401E106089
:101620001068704730B40300001F0C1D0460001FD9
:101630003F4C0460001F0360001F3E4C0460001F0D
:101640003D4C0460001F3D4C0460001F3C4C046096
:10165000001F3C4C0460001F3B4C0460001F3B4CCF
:101660000460001F3A4C0460001F3A4C0460001FE5
:10167000394C0460001F394C0460001F6410046082
:10168000001F0260001F1F240460CC07E40F002C21
:1016900003D0202504682C430460001F002404604C
:1016A00030BC704700212E4AD1602E48110088615D
:1016B000032151615114C968102291432A4AD16013
:1016C0001100096910221143274A11612749284A4C
:1016D00011602421274A11600121214A516070477D
:1016E00010B5FFF7DFFF00F005FA002010BC08BCC2
:1016F0001847704710B500F0C9FA1F480068401C31
:101700001D49086010BC08BC184710B51A4800688D
:1017100000280AD018480068401E174908600800D1
:101720000068002801D100F0BDFA10BC08BC1847C1
:10173000AAAAAAAA12121212111111111010101035
:101740000909090908080808070707070606060621
:101750000505050504040404030303030202020251
:10176000004000E060EA000000F0FFFFBC1B00004A
:1017700000F1FFFF00F2FFFF9C000040454AD00847
:10178000C000454A10600022434B5A60434A444B14
:101790005A6000221A600100404A4A601A000A603A
:1017A0007047F8B5040000200090FFF795F93D4818
:1017B0000068002804D1FFF7E1FF012039490860E3
:1017C000002C09D008346007400F002804D06007BF
:1017D000400F0821081A0419002C31D02F488442E8
:1017E0002ED22D4F3800056801E02F002D68686863
:1017F000A04202D228680028F7D1294885421FD08C
:10180000386808300090286838606868001B102825
:1018100010D92E196868001B70606C6071681E48D2
:1018200000E00068026852688A42FAD302683260B7
:101830000660C0461C4968680968081A1A490860A9
:10184000FFF797F80098F8BC08BC184770B5060079
:101850003500002E16D0083D2C00FFF73DF96168D9
:101860000D4800E00068026852688A42FAD30268B4
:10187000226004600C496068096840180A490860E1
:10188000FFF777F870BC08BC184707480068704736
:101890007047000050020040A0000040F8330000F4
:1018A000A8000040B4000040B0000040013090E1CA
:1018B0002100004A0020B0E3A03071E01A00003A95
:1018C000203271E00F00003A203471E00100003A4C
:1018D00000C0A0E3200000EAA03371E081034020B3
:1018E0000220B2E0203371E0010340200220B2E088
:1018F000A03271E0810240200220B2E0203271E08B
:10190000010240200220B2E0A03171E081014020BC
:101910000220B2E0203171E0010140200220B2E05B
:10192000A03071E0810040200220B2E0011050E0C0
:101930000010A0310200A2E01EFF2FE1022111E2FF
:101940000010614240C032E000006022203271E0AD
:101950001D00003A203471E00F00003A0113A0E1AD
:10196000203471E03F2382E30B00003A0113A0E131
:10197000203471E03F2682E30700003A0113A0E122
:10198000203471E03F2982E30113A0213F2C822300
:10199000003071E21D00002A2113A021A03371E064
:1019A000810340200220B2E0203371E00103402097
:1019B0000220B2E0A03271E0810240200220B2E0B9
:1019C000203271E0010240200220B2E0A03171E03B
:1019D000810140200220B2E0203171E0010140206D
:1019E0000220B2E0EBFFFF2AA03071E0810040202E
:1019F0000220B2E0011050E00010A0310200A2E08D
:101A0000CCCFB0E100006042001061221EFF2FE148
:101A1000CCCFB0E10000604201402DE90000B0E30E
:101A20000000A0E10240BDE81EFF2FE170477047B3
:101A3000704700000E50A0E11A0000EB05E0A0E1A5
:101A40000050B0E10D10A0E10A30A0E10700C0E3B2
:101A500000D0A0E160D08DE220402DE9EBF9FFEB52
:101A60002040BDE80060A0E30070A0E30080A0E398
:101A700000B0A0E30710C1E305C0A0E1C009ACE8D5
:101A8000C009ACE8C009ACE8C009ACE801D0A0E1ED
:101A90001EFF2FE110B50400C046C0462000FEF72F
:101AA000ADFB10BC08BC184700009FE51EFF2FE1EE
:101AB0004836004001C08FE21CFF2FE10149182089
:101AC000ABDFFEE7260002001EFF2FE17847C0468D
:101AD0000020B0E3203171E090FFFF3AA03271E0C6
:101AE00085FFFF3A203471E07AFFFF3A00C0A0E39F
:101AF00099FFFFEA7847C0466C019FE5000090E53A
:101B000000E090E564019FE50200BEE8001080E57A
:101B10000100BEE800F06FE1FF7FDEE80000A0E119
:101B20003CE09EE504F05EE2000000EF1EFF2FE1C6
:101B300004E08EE201002DE900204DE90000A0E163
:101B400004D04DE20100BDE8004020E900E0A0E142
:101B50000100BDE8FF7F4EE90000A0E13CE04EE25D
:101B600000004FE101002EE900019FE5000090E533
:101B700001002EE9F0009FE5001090E500E081E50E
:101B8000EC009FE50FE0A0E110FF2FE1D8009FE5FA
:101B9000000090E500E090E5D0009FE50200BEE87F
:101BA000001080E50100BEE800F06FE1FF7FDEE895
:101BB0000000A0E13CE09EE504F05EE201002DE9BA
:101BC00000204DE90000A0E104D04DE20100BDE895
:101BD000004020E900E0A0E10100BDE8FF7F4EE900
:101BE0000000A0E13CE04EE200004FE101002EE9E0
:101BF00078009FE5000090E501002EE968009FE570
:101C0000001090E500E081E568009FE50FE0A0E1AD
:101C100010FF2FE1000050E30200000A50009FE592
:101C20000FE0A0E110FF2FE10100A0E348109FE5C5
:101C3000000081E544009FE5000080E528009FE565
:101C4000000090E500E090E520009FE50200BEE87E
:101C5000001080E50100BEE800F06FE1FF7FDEE8E4
:101C60000000A0E13CE09EE504F05EE26000004080
:101C70009C0000405B0C000095080000004000E064
:101C800030F0FFFF7847C046A6FFFFEA7847C0461E
:101C900000000FE1801080E301F021E1800000E20C
:101CA0001EFF2FE17847C04600000FE18000C0E32F
:101CB00000F021E11EFF2FE17847C04601C05EE53C
:101CC0000C0053E10100003A0C30DEE7000000EAAE
:101CD0000330DEE783C08EE01CFF2FE1FC1C000018
:101CE00000000040B800000048010000B41D0000E2
:101CF000B8000040103C000070010000001000001F
:101D00001101001201001301001401001501001659
:101D100001001701001801001901001A01001B0140
:101D2000001D01001E01001F010110010111010130
:101D3000120101130101140101150101160101171E
:101D400001011801011901011A01011B01011D0105
:101D5000011E01011F011E00000000000000000024
:101D60000000000000000000000000000000000073
:101D70000000000000000000000000000000000063
:101D80000000000000000000000000000000000053
:101D900000000000000000000F270000000000000D
:101DA000000000000000000000000000F833000008
:041DB000000000002F
:0400000500000104F2
:00000001FF
