:020000040000FA
:1000000018F09FE518F09FE518F09FE518F09FE5C0
:1000100018F09FE50000A0E1F0FF1FE518F09FE554
:1000200058000000400000000C28000048000000BC
:100030004C000000000000005000000054000000D0
:10004000FEFFFFEAFEFFFFEAFEFFFFEAFEFFFFEA18
:10005000FEFFFFEAFEFFFFEA94009FE5AA10A0E37F
:100060005520A0E32430A0E3043080E50130A0E374
:10007000003080E50C1080E50C2080E5083090E52C
:10008000013B13E2FCFFFF0A0330A0E3003080E5F0
:100090000C1080E50C2080E558009FE50410A0E3DB
:1000A000041080E50210A0E3001080E548009FE501
:1000B000DBF021E300D0A0E1080040E2D7F021E32B
:1000C00000D0A0E1080040E2D1F021E300D0A0E19F
:1000D000080040E2D2F021E300D0A0E1030C40E2AE
:1000E000D3F021E300D0A0E1030C40E20C009FE537
:1000F00010FF2FE180C01FE000C01FE0D83C00408F
:1001000004010000000000EB2E0000EB2C008FE249
:10011000000C90E800A08AE000B08BE001704AE299
:100120000B005AE10000001A260000EB0F00BAE8AD
:1001300018E04FE2010013E303F0471013FF2FE133
:100140007828000098280000102052E27800B0289B
:100150007800A128FBFFFF8A822EB0E13000B02892
:100160003000A12800409045004081451EFF2FE14E
:100170000030B0E30040B0E30050B0E30060B0E313
:10018000102052E27800A128FCFFFF8A822EB0E105
:100190003000A128003081451EFF2FE101C08FE211
:1001A0001CFF2FE11FB5059886460FBC009C02B0CE
:1001B0007047000001C08FE21CFF2FE130B475468C
:1001C000AE4630BC70470000500900EB0210A0E1C1
:1001D000F1FFFFEB1CC09FE50FC08CE001001CE3AA
:1001E0000DE08F120FE0A0011CFF2FE101C08FE294
:1001F0001CFF2FE102F0BCFA2D0300007847C04637
:1002000003002DE9EAFFFFEB0300BDE85F0900EB07
:100210000C009FE50C109FE504209FE508309FE54A
:100220001EFF2FE1B8360040C0390040B83600400C
:1002300001002DE900204DE90000A0E104D04DE2CD
:100240000100BDE8004020E900E0A0E10100BDE8B8
:10025000FF7F4EE90000A0E13CE04EE200004FE1EC
:1002600001002EE94C009FE5000090E501002EE919
:1002700044009FE5001090E500E081E53C009FE52B
:100280000FE0A0E110FF2FE12C009FE5000090E5BA
:1002900000E090E51C009FE50200BEE8001080E54C
:1002A0000100BEE800F06FE1FF7FDEE80000A0E1A2
:1002B0003CE09EE504F05EE2A80000406C000040D7
:1002C000BD06000000205BE0410041185E4A515C21
:1002D000002902D0012950D127E0410041185A4A93
:1002E0008918897800290CD15849896842008218F8
:1002F000554BD218537801229A409143534A91604A
:1003000012E041004118504A8918897801290BD11F
:100310004E498968420082184B4BD218537801220B
:100320009A401143494A916028E041004118464AE9
:100330008918897800290CD14449896942008218BA
:10034000414BD218537801229A4091433F4A916120
:1003500012E0410041183C4A8918897801290BD1E3
:100360003A49896942008218374BD21853780122E2
:100370009A401143354A916100E0C046C046401C96
:100380003349098888429FDB70470200002A02D067
:10039000012A0CD105E02D4B1B68CB40D807C00FBC
:1003A00005E02A4B1B69CB40D807C00FC046C046AA
:1003B000704710B4002802D0012827D113E0002A8A
:1003C00007D1224BDB6801248C4023431F4CE360A0
:1003D00008E0012A06D11D4B5B6801248C402343B1
:1003E0001A4C636012E0002A07D1184BDB69012424
:1003F0008C402343154CE36108E0012A06D1134BDE
:100400005B6901248C402343104C6361C04610BCDF
:10041000704770B505000E0031002800FFF7B5FFEA
:100420000400012C05D1002231002800FFF7C1FF94
:1004300006E0002C04D1012231002800FFF7B9FFAB
:1004400070BC08BC1847000000000040008002E0BB
:100450005A00004010B5012214210020FFF7A9FF27
:1004600010BC08BC184782B000F02EFA0190C046BC
:1004700040A0009000235A1E69464148006801F0E0
:100480001DFB642101A800F008FC002214211000CB
:10049000FFF78FFFECE782B000F016FA0090C0463D
:1004A0000022D24301A93648006801F047FC002829
:1004B00008D0019801F0A8FF0404240C2100019841
:1004C00000F0D2F81421684600F0E7FB0022142166
:1004D0001000FFF76EFFE3E77D20C0002949C860E8
:1004E000080040680121084326494860704710B55C
:1004F000E120400200F066F8FFF7E4FEFFF7ECFFB2
:1005000001202149087010BC08BC184784B0FFF7CF
:10051000EEFF002214210A2001F013FA18490860A6
:1005200064201A4901220023009201910290322294
:1005300017A11D4800F0D3F914201C490122002303
:10054000009201910290322219A11D4800F0C7F9D2
:1005500000F095FDC046FEE70A48406802210843C6
:1005600008494860080040680221884305494860FE
:100570007047000061686D65645F617465660000C6
:1005800064000040008000E000C11FE05C0000400B
:10059000506572696F6469635F5472616E736D69EF
:1005A0007474657200000000670400006000004081
:1005B00055415254726563656976657200000000AA
:1005C0009704000070B505005A480068012109042D
:1005D000084358490860080000680121890408435D
:1005E000544908602E013100534802F0DDF8040040
:1005F0005248007B80210843504908730C70240A3C
:100600000C7107200872032008734814C068802109
:1006100088434B49C8600800006980210843484965
:10062000086148484849486027204849486043488D
:100630000079032108434149087170BC08BC184780
:10064000010043480078012809D10020404A107079
:10065000404800780006001608700120704700200E
:10066000FCE7364A1070704770B505000C003A4838
:100670000078002820D1002D1ED038490C70364952
:100680000C70002303E0E85C3549C8545B1CA342AE
:10069000F9DB31490A780978491E2F4E31702F490C
:1006A0000978891A2E4A515C09060816FFF7D9FF06
:1006B000012070BC08BC18470020FAE710B41F4A9C
:1006C000107A2EE00207120F022A0BD0042A1CD047
:1006D000062A02D00C2A20D116E0184A127D1106F3
:1006E00009161BE01C4A1278002A0CDD1A4A1378FE
:1006F0001278521E184C2270184A1278D21A184BCF
:100700009A5C0E4B1A7009E0C0460C4A1278114BE5
:100710001A7001220E4B1A7000E0C046C046074A0C
:10072000107AC207D20F002ACCD00022044B1A63E1
:1007300010BC704700C002E000879303000001E096
:1007400000F0FFFF3002000000F1FFFF00F2FFFFAA
:1007500069000040680000406B0000406A000040F3
:10076000C400004010B5FE4801F04EF8FD4801F00D
:100770004BF8FD4801F048F8FC4801F045F8FC480A
:1007800001F042F8FB4801F03FF8F648FA490860EA
:10079000F548FA49086010BC08BC184710B50400B9
:1007A00001F056FDF6480068401CF5490860F54820
:1007B0000068002808D1F348046008000068012898
:1007C0000ED1FFF7CFFF0BE0EF480068002807D1FC
:1007D000EC480068C06AE16A884201D8E9480460D0
:1007E000EA480068401CE9490860E9480068406838
:1007F0006168884204D8E06C0A30E54909684860BD
:10080000211DD74801F01CF801F02DFDDE480068DD
:10081000002807D0DB480068C06AE16A884201D23C
:1008200002F09EF810BC08BC1847FFB581B00E005E
:100830000A9F0C9C216B0398401E800008180090B2
:100840000098C008C0000090002E11D0002508E0DC
:10085000715D200034304155705D002800D102E008
:100860006D1C082DF4D3C04600213B20015502E049
:10087000002134200155042F00D30327E7620E988E
:10088000E064E76300202064201D00F0CAFF200020
:10089000183000F0C6FF24610420C01BA061646210
:1008A00000206064002148200155049A684603C86E
:1008B00001F066FC20600B98002801D00B980460C2
:1008C00005B0F0BC08BC184710B501F0C1FCB14838
:1008D000046801F0C8FC200010BC08BC1847FFB534
:1008E00085B01700B80001F00AFD0600002E0BD0FD
:1008F000502001F004FD0400002C01D0266304E028
:10090000300001F051FD00E00024002C18D0FFF76A
:10091000DBFFE16C4018606000220FA803C801AB48
:1009200011C3039204910E9800903A00089B05A809
:1009300003C8FFF77AFF2000FFF730FF012501E031
:100940000025ED43280009B0F0BC08BC18478A49CF
:1009500009680968002901D1012100E0002100296E
:1009600004D00021C9438C4A116006E0824909681D
:10097000C968C868884A41681160704710B50400AA
:10098000206B01F011FD200001F00EFD10BC08BC31
:10099000184770B5050001F05BFC002D02D17948C5
:1009A000006800E028000400201D00F065FFA06A38
:1009B000002803D02000183000F05EFF7348006864
:1009C000401C724908606F480068844209D1211DAB
:1009D000674800F029FF71480068401C6F490860B3
:1009E00009E067480068401E654908602000FFF77D
:1009F000C5FFFFF7ACFF01F036FC63480068002834
:100A000005D060480068844201D101F0A9FF70BCA4
:100A100008BC1847F8B5002000906148006800281D
:100A20006CD15C480068451C5A480560002D0FD108
:100A300051480768514800684F4908604F480760AF
:100A400058480068401C57490860FFF780FFC046BF
:100A50005148006885423FD3C04647480068006857
:100A6000002801D1012000E00020002804D000204F
:100A7000C043494908602EE03F480068C068C46828
:100A80006668B54202D24448066024E0201D00F0AA
:100A9000F3FEA06A002803D02000183000F0ECFE1E
:100AA000E06C401960603A480068406861688842BC
:100AB00004D8E06C0A30364909684860211D28488E
:100AC00000F0BEFE2F496068096849688842C4D2B8
:100AD00001200090C1E7C0462A480068C06A14217E
:100AE000484331490858012801D9012000902F4876
:100AF0000068002801D00120009004E02C48006824
:100B0000401C2B4908600098F8BC08BC184770B519
:100B10000024002601F09CFB21480068401E20496B
:100B2000086008000068002877D115480068002890
:100B300073D04CE00D48C068C4682000183000F045
:100B40009BFE201D00F098FE114800684068616817
:100B5000884204D8E06C0A300D490968486029E0F1
:100B600040020040DC010040F0010040040200406F
:100B7000180200402C020040700000407400004049
:100B80007C0000406C00004088000040980000405D
:100B9000A0000040800000409C0000407800004021
:100BA000A4000040940000408C01004090000040F0
:100BB0008C000040211DFE4800F042FEFD49E06A25
:100BC0000968C96A884202D30120FB490860FB48D2
:100BD0000068002801D1012000E000200028A9D0F1
:100BE000002C01D0FFF7B3FEF5480568002D0DD0AD
:100BF000C046FFF70FFF002802D00120EE49086031
:100C00006D1E002DF5D10020ED490860EA4800680E
:100C1000002802D0012601F0A3FE01F024FB3000E1
:100C200070BC08BC1847F8B505000E00E548076819
:100C3000E0480068001D00F01FFE681C002808D175
:100C4000002E06D0DB480168091DDF4800F0ECFDEE
:100C50001AE07C19D74800684460BC4207D2D548E6
:100C60000168091DD948006800F0EAFD0CE0D14890
:100C70000168091DD648006800F0E2FDD54800680B
:100C8000844201D2D3480460F8BC08BC1847D2485B
:100C90000068401CD04908607047F3B581B004007B
:100CA00000200090FFF7F3FFC6480668216802980D
:100CB0000D182068B04207D92068A8420BD9B54268
:100CC00009D90120009006E02068A84201D8B54269
:100CD00001D90120009025600098002803D0A81BAE
:100CE0000021FFF7A0FFFFF712FF0700002F01D13F
:100CF00001F036FEFEBC08BC184770B504000025A4
:100D0000002C08D0FFF7C3FF00212000FFF78BFF66
:100D1000FFF7FDFE0500002D01D101F021FE70BCA2
:100D200008BC184770B5040001F092FA002C02D1FB
:100D3000A048006800E020000600F56A01F093FA80
:100D4000280070BC08BC184710B40100002300291B
:100D500002D1984C246800E00C002200D06A10BC3C
:100D60007047FEB507000D0000200090042D00D351
:100D7000032501F06DFA002F02D18E48006800E0D3
:100D800038000400E66BAE4248D0B5420BD9894822
:100D9000006884420DD087480068C06AA84208D81D
:100DA0000120009005E083480068844201D10120C1
:100DB0000090E06A0190E16AE06B884200D1E56250
:100DC000E563A069C00FC007002802D10420401BC2
:100DD000A0616169142201985043804A80188142C1
:100DE00001D1012000E00020002811D0201D00F0DA
:100DF00043FD7B48006840686168884204D8E06C25
:100E00000A30774909684860211D694800F018FDDB
:100E10000098002801D001F0A3FDC04601F023FA9C
:100E2000FEBC08BC18476C480068002803D00120AD
:100E30006149086007E000205F4908605C48C068BD
:100E4000C0685C490860704770B5050001F000FAA1
:100E5000002D02D15748006800E028000400201D42
:100E600000F00AFDA06A002803D02000183000F02E
:100E700003FD211D544800F0D7FC4820005D0128E7
:100E800002D100214820015501F0EDF955480068D4
:100E9000002805D001F0DCF9FFF759FD01F0E3F976
:100EA00044480068844212D14E480068002802D0AD
:100EB00001F056FD0BE0444800684B490968884240
:100EC00003D100203B49086001E0FFF7ACFF70BC94
:100ED00008BC184710B4010000200A003A4C5369BE
:100EE000A34201D1012300E00023002B11D0334C99
:100EF000936AA34201D1012300E00023002B08D113
:100F0000936A002B01D1012300E00023002B00D0C5
:100F1000012010BC704770B505002C002548006802
:100F2000844224D0002C22D001F092F92000FFF757
:100F3000D1FF002819D0201D00F09EFC2848006831
:100F400040686168884204D8E06C0A302449096826
:100F50004860211D164800F073FC1649E06A0968D4
:100F6000C96A884201D301F0FBFC01F07CF970BC36
:100F700008BC1847F8B5050000262C000027200003
:100F8000FFF7A8FF002841D013480068002838D197
:100F90000849E06A0968C96A884200D30126201D11
:100FA00000F06AFC0E4800684068616888421DE0F5
:100FB000400200406C0000409000004004020040ED
:100FC0008C000040800000402C0200407400004073
:100FD000700000409C000040A40000408C010040D4
:100FE000A0000040880000407C00004004D8E06C75
:100FF0000A30FE4909684860211DFD4800F020FCC8
:1010000004E021001831FB4800F00EFC3000F8BC71
:1010100008BC184710B516E001F01AF9F648C06888
:10102000C468201D00F028FCF4480068401EF34905
:101030000860F3480068401EF149086001F013F9A8
:101040002000FFF79BFCEE4800680028E4D110BCAC
:1010500008BC1847C046FFF7DDFFFFF735FCE9493C
:101060000968C96C4018E74909684860E0480068A9
:10107000012801D901F074FCFFF7ECF9EBE73EB56C
:10108000C825DA4800210B00322201AC21C40091AE
:10109000DDA1DF48FFF723FC0400012C0CD101F097
:1010A00063FCA01EDB4908600120DB4908600020CA
:1010B000DA49086001F0C2F83EBC08BC184710B518
:1010C00001F052FC0020D449086001F0C0F810BCC7
:1010D00008BC18470021D14A10687047C74800680B
:1010E00070470100002902D1C648006800E00800EE
:1010F000020010003430704770B504000025FFF77F
:10110000C6FDC74800680019C5490860FFF7FFFC25
:101110000500280070BC08BC184770B505000C001D
:10112000B84801681831280000F08AFB012120002E
:10113000FFF779FD70BC08BC184770B506000C00BD
:1011400015000120C0072043AE4909688861AD48F9
:1011500001681831300000F067FB01212800FFF71B
:1011600062FD70BC08BC184770B50600F068C46822
:101170002000183000F080FBAA480068002812D137
:10118000201D00F079FB994800684068616888423A
:1011900004D8E06C0A30954909684860211D9448DC
:1011A00000F04EFB04E021001831924800F03CFBB7
:1011B0009449E06A0968C96A884204D90125012076
:1011C0009949086000E00025280070BC08BC184759
:1011D00070B505000E000120C00730432860EC68A0
:1011E000280000F049FB201D00F046FB7F48006806
:1011F00040686168884204D8E06C0A307B4909681D
:101200004860211D7A4800F01BFB7E49E06A0968AE
:10121000C96A884202D901208349086070BC08BCB1
:10122000184710B5040001F013F8804800682060EA
:101230007A480068606001F016F810BC08BC1847D6
:101240007A4909680160754909684160704770B55D
:1012500006000C0000F0FCFF704802687068131A6A
:101260002068401C002801D1002517E06F49306834
:101270000968884204D07068904201D801250DE0C9
:101280002068984207D92068C01A20603000FFF714
:10129000D7FF002502E000202060012500F0E3FFD9
:1012A000280070BC08BC184701205F4908607047DF
:1012B00054490868704770B505002C000026002DC1
:1012C00041D05049E06A0968C96A884234D2A069AD
:1012D000C00FC007002805D14A480068C06A042131
:1012E000081AA0611422E06A5043514A80186169CB
:1012F000814201D1012000E00020002816D0201DED
:1013000000F0BAFA3F480068C06AE06237480068F7
:1013100040686168884204D8E06C0A303349096843
:101320004860211D324800F08BFA03E03548006820
:10133000C06AE062012606E03249E06B0968C96ACA
:10134000884200D20126300070BC08BC184770B536
:1013500005002C000026002D22D0206C401E2064A9
:10136000E16BE06A88421BD0206C002818D1201D58
:1013700000F082FAE06BE0620421E06A081AA061E2
:101380001A48006840686168884204D8E06C0A30F6
:10139000164909684860211D154800F051FA0126D8
:1013A000300070BC08BC1847FEB506000F003400C2
:1013B00001200090002E5AD0E06BB84201D23D00CF
:1013C00000E0E56BE06AA84251D0206C01284ED1C4
:1013D000E06A0190E562A069C00FC007002802D151
:1013E0000420401BA0616169142223E0A00000409A
:1013F0004002004004020040180200407C0000400F
:10140000780000406C00004049444C45000000005A
:10141000551000009C000040880000408000004003
:101420008C000040A4000040900000409400004068
:101430008C01004001985043EC4A8018814201D150
:10144000012000E00020002811D0201D00F014FA37
:10145000E748006840686168884204D8E06C0A3058
:10146000E34909684860211DE24800F0E9F9FEBC43
:1014700008BC1847E04909688869DF490968C96AF2
:101480000422511ADC4A126891617047DA480068F8
:10149000002806D0D849096808004030096C491C6A
:1014A0000160D5480068704770B506000D0000F077
:1014B000CFFED1480068406C00280BD10121CE48F6
:1014C000006840300172002D04D02800FFF7ABFB0C
:1014D00001F046FA00F0C7FE00F0BAFEC648006808
:1014E000446C002C0AD0002E04D00020C2490968A8
:1014F000486403E0601EC049096848640021BE4892
:1015000000684030017200F0AEFE200070BC08BCE4
:101510001847FFB581B0070014001D0000F098FEC9
:10152000B54800684030007A022812D0B2490968F4
:1015300008004430496CB94301600121AE4800689D
:1015400040300172002D04D02800FFF76CFB01F041
:1015500007FA00F088FE00F07BFE002C03D0A648BE
:101560000068406C2060A44800684030007A02287F
:1015700001D0002608E0A0490968080044304A6C00
:1015800002998A430260012600219B48006840308E
:10159000017200F068FE300005B0F0BC08BC1847CE
:1015A000FFB583B00D0016001F0001200290039CC0
:1015B00000F04EFE002F01D0606C38604820005DC6
:1015C0000190022148200155330001F0E3F905168E
:1015D00004080C0E1700606C284360640FE0606C18
:1015E000401C60640BE0656409E00198022801D0AA
:1015F000656401E00020029001E000E0C046C046C2
:101600000198012819D1201D00F036F978480068AA
:1016100040686168884204D8E06C0A3074490968FF
:101620004860211D734800F00BF97349E06A0968AE
:10163000C96A884201D901F093F900F014FE0298BA
:1016400007B0F0BC08BC1847FFB583B00D0016000A
:101650001F0001200190039C00200090002F01D06A
:10166000606C38604820005D0290022148200155DE
:10167000330001F08FF9051604080C0E1700606C9A
:10168000284360640FE0606C401C60640BE065649C
:1016900009E00298022801D0656401E00020019071
:1016A00001E000E0C046C046029801282AD1534814
:1016B0000068002812D1201D00F0DEF84C480068B8
:1016C00040686168884204D8E06C0A30484909687B
:1016D0004860211D474800F0B3F804E021001831AC
:1016E000474800F0A1F84449E06A0968C96A88429D
:1016F00008D90C98002802D001210C980160012023
:1017000040490860019807B0F0BC08BC1847F8B51C
:1017100005000E002C00002000904820075D0221EB
:101720000155606C401C6064012F28D1334800686B
:10173000002812D1201D00F09FF82D480068406855
:101740006168884204D8E06C0A3029490968486019
:10175000211D284800F074F804E0210018312848C1
:1017600000F062F82449E06A0968C96A884206D92B
:10177000002E01D001203060012022490860F8BC11
:1017800008BC184770B50500002D02D11A48006842
:1017900000E02800060000F05BFD4820805D022884
:1017A00004D1002148208155012400E0002400F0EC
:1017B0005AFD200070BC08BC1847F8B504000D00A5
:1017C000002C02D10C48006800E02000060000F068
:1017D0003FFD09480068476C706CA843706400F0D6
:1017E00042FD3800F8BC08BC184700008C010040DE
:1017F000A0000040400200406C000040A4000040F7
:1018000004020040900000400100083141600021C6
:10181000C943816001000831C1600161002101609C
:10182000704700210161704742684A6093688B608D
:10183000936859609160086103685B1C036070479E
:1018400010B402000B685C1C002C01D1106907E089
:101850001000083000E04068446824689C42FAD9CF
:1018600044684C604C68A160886041600A611468FB
:10187000641C146010BC704701000A694B688868DA
:101880009860081D09C858605068884201D188686E
:101890005060002008611068401E1060106870479A
:1018A00070B505000E002C0000F0D2FC216CE06B3E
:1018B000484321684018A0600020A0632068606051
:1018C000E06B401E216C484321684118E160002113
:1018D000C9434420015545200155002E10D12069EF
:1018E000002801D1012000E00020002810D12000B4
:1018F0001030FFF739FC00280AD001F031F807E07A
:1019000020001030FFF780FF20002430FFF77CFF1D
:1019100000F0A9FC012070BC08BC1847F8B506000F
:101920000D001700069C002D01D1246000E0276007
:10193000E663256401212000FFF7B2FFF8BC08BC74
:101940001847FEB505000E001700280070430290EE
:1019500002990800483000F0D2FC0400002C0BD0A3
:101960000194019C2000483001903B00009431001C
:101970002800019AFFF7D2FF2000FEBC08BC1847E0
:1019800070B5040000F064FC4520055714E0606A5F
:10199000002801D1012000E00020002808D120000B
:1019A0002430FFF7E1FB002803D0FFF77DFC00E0C7
:1019B00004E0681E00060516002DE8DCC046002184
:1019C000C9434520015500F04EFC00F041FC442085
:1019D000055714E02069002801D1012000E0002013
:1019E00000280BD120001030FFF7BEFB002801D0EB
:1019F000FFF75AFC681E0006051600E001E0002D06
:101A0000E8DCC0460021C9434420015500F02BFC0E
:101A100070BC08BC184770B5050000F019FCA86B35
:101A2000E96B884201D1012400E0002400F01BFC96
:101A3000200070BC08BC1847F8B504000F00150062
:101A400000200090A66B206C002809D12068002897
:101A50002ED1A068FFF77BFC00900020A06027E05B
:101A6000002D0FD13900226C606800F0EFFC216C72
:101A7000606840186060A1686068884218D3206878
:101A8000606015E03900226CE06800F0DFFC216C3A
:101A9000E068411AE1602168E068884203D2216C65
:101AA000A068411AE160022D02D1002E00D0761EFE
:101AB000701CA0630098F8BC08BC1847FFB583B041
:101AC00007001D00002002903C00C04600F0C0FB53
:101AD000A06BE16B884201D3022D21D12A002000A6
:101AE0000499FFF7A9FF0600606A002801D10120D0
:101AF00000E00020002808D120002430FFF734FB4C
:101B0000002806D000F02CFF03E0002E01D000F0EA
:101B100027FF00F0A8FB012007B0F0BC08BC184765
:101B20000598002803D100F09EFB0020F4E70298FE
:101B3000002804D16846FFF783FB0120029000F0E3
:101B400092FBFFF7A4F800F083FB44210857401CE8
:101B5000002802D100214420015545210857401C8E
:101B6000002802D100214520015500F07CFB05A989
:101B70006846FFF76CFB002819D12000FFF74BFFE8
:101B800000280ED0200010300599FFF7C6FA20007B
:101B9000FFF7F6FEFEF7BBFF002897D100F0E0FE4E
:101BA00094E72000FFF7ECFEFEF7B1FF8EE7200080
:101BB000FFF7E6FEFEF7ABFF0020ADE710B504002F
:101BC000002C0AD00020A06020600021E1600023EA
:101BD0001A0019002000FFF771FF10BC08BC18475D
:101BE000F8B5040001260027220000210120FFF79C
:101BF000A8FE05002800FFF7E1FF2800F8BC08BC9C
:101C00001847FFB585B0050016001F002C00002006
:101C10000390A06BE16B884201D3022F29D14520AC
:101C200001570291A06B01903A0020000699FFF73E
:101C300003FF0298401C002812D1606A002801D1DD
:101C4000012000E00020002809D120002430FFF707
:101C50008BFA002803D0002E01D00120306005E06F
:101C60000298401C010609164520015501200490E8
:101C700001E000200490049809B0F0BC08BC1847AB
:101C8000FEB505000E002C0000200290A06B019014
:101C9000E16B0198814224D94520015700910198B8
:101CA000401CA0630098401C002812D1606A0028E4
:101CB00001D1012000E00020002810D120002430B4
:101CC000FFF752FA00280AD0002E08D00120306019
:101CD00005E00098401C0106091645200155012722
:101CE00000E000273800FEBC08BC184770B50500AE
:101CF00000F0AEFAA86B002801D1012400E0002416
:101D000000F0B1FA200070BC08BC184770B50400A0
:101D10000D00206C00280ED0216CE0684118E160B5
:101D2000A168E068884201D32168E1602800226C44
:101D3000E16800F08BFB70BC08BC1847F7B582B0B7
:101D4000050000272C00C04600F082FAA66B002E8A
:101D50001CD020000399FFF7D9FF701EA0632069F3
:101D6000002801D1012000E00020002807D1200038
:101D70001030FFF7F9F9002801D000F0F1FD00F074
:101D800072FA012005B0F0BC08BC1847049800287E
:101D900003D100F068FA0020F4E7002F03D1684671
:101DA000FFF74EFA012700F05EFAFEF770FF00F031
:101DB0004FFA44210857401C002802D1002144203A
:101DC000015545210857401C002802D1002145201B
:101DD000015500F048FA04A96846FFF738FA0028D0
:101DE00019D12000FFF782FF00280ED020002430F8
:101DF0000499FFF792F92000FFF7C2FDFEF787FE76
:101E00000028A1D100F0ACFD9EE72000FFF7B8FD4F
:101E1000FEF77DFE98E72000FFF7B2FDFEF777FEA4
:101E20002000FFF763FF00288ED00020AAE7010002
:101E30004A6A002A04D00A6B12680423981A00E048
:101E400000207047F3B583B0050000272C00002068
:101E50000090C04600F0FCF9A66B002E1ED0701E4C
:101E6000A0632068002802D1FFF710FBA060206962
:101E7000002801D1012000E00020002807D1200027
:101E80001030FFF771F9002801D000F069FD00F073
:101E9000EAF9012005B0F0BC08BC184704980028F6
:101EA00003D100F0E0F90020F4E7002F03D101A8EE
:101EB000FFF7C6F9012700F0D6F9FEF7E8FE00F0BB
:101EC000C7F944210857401C002802D100214420B2
:101ED000015545210857401C002802D1002145200A
:101EE000015500F0C0F904A901A8FFF7B0F90028D6
:101EF00024D12000FFF7FAFE002819D0206800281E
:101F000007D100F0A5F9A068FFF7D5F9009000F01F
:101F1000AAF9200024300499FFF7FFF82000FFF70A
:101F20002FFDFEF7F4FD002894D100F019FD91E794
:101F30002000FFF725FDFEF7EAFD8BE72000FFF705
:101F40001FFDFEF7E4FD2000FFF7D0FE002881D042
:101F5000009800280BD000F07BF92000FFF767FF06
:101F600006003100A068FFF71FFA00F07CF900209E
:101F700090E7F7B584B0050000272C00C04600F0BC
:101F800067F9A06B0190019800281CD0E66820003A
:101F90000599FFF7BBFEE660606A002801D10120C9
:101FA00000E00020002807D120002430FFF7DCF8F3
:101FB000002801D000F0D4FC00F055F9012007B052
:101FC000F0BC08BC18470698002803D100F04BF974
:101FD0000020F4E7002F03D102A8FFF731F9012711
:101FE00000F041F9FEF753FE00F032F944210857A2
:101FF000401C002802D100214420015545210857EA
:10200000401C002802D100214520015500F02BF989
:1020100006A902A8FFF71BF9002819D12000FFF735
:1020200065FE00280ED0200024300699FFF775F8D1
:102030002000FFF7A5FCFEF76AFD00289FD100F005
:102040008FFC9CE72000FFF79BFCFEF760FD96E706
:102050002000FFF795FCFEF75AFD2000FFF746FE33
:1020600000288CD00020AAE7F7B584B00500160040
:102070002C0000200390A06B02900298002828D02A
:1020800044200157019120000599FFF73FFE029877
:10209000401EA0630198401C002812D1206900282E
:1020A00001D1012000E00020002810D120001030D4
:1020B000FFF75AF800280AD0002E08D0012030601F
:1020C00005E00198401C010609164420015501272E
:1020D00000E00027380007B0F0BC08BC1847F3B593
:1020E00081B005002C0000200090A06B002807D0D4
:1020F000E76820000299FFF709FEE760012600E08B
:1021000000263000FEBC08BC184770B5040000F083
:102110009FF8A56B00F0A7F8280070BC08BC184712
:1021200070B50400250000F093F8A96BE86B461A1F
:1021300000F099F8300070BC08BC184701000A0094
:10214000906B704770B504002500280000F02CF952
:1021500070BC08BC184701000A00936B002B01D12A
:10216000012000E00020704710B401000A00936BCA
:10217000D46BA34201D1012000E0002010BC7047C5
:1021800030B40300001F0C1D0460001F3F4C0460AE
:10219000001F0360001F3E4C0460001F3D4C0460A4
:1021A000001F3D4C0460001F3C4C0460001F3C4C71
:1021B0000460001F3B4C0460001F3B4C0460001F88
:1021C0003A4C0460001F3A4C0460001F394C046014
:1021D000001F394C0460001F64100460001F02607F
:1021E000001F1F240460CC07E40F002C03D020251F
:1021F00004682C430460001F0024046030BC704756
:1022000000212E4AD1602E481100886103215161BE
:102210005114C968102291432A4AD16011000969FA
:1022200010221143274A11612749284A11602421AD
:10223000274A11600121214A5160704710B5FFF70C
:10224000DFFF00F0C5FA002010BC08BC184770473B
:1022500010B500F089FB1F480068401C1D4908604C
:1022600010BC08BC184710B51A48006800280AD0EE
:1022700018480068401E17490860080000680028D8
:1022800001D100F07DFB10BC08BC1847AAAAAAAA7D
:10229000121212121111111110101010090909094E
:1022A00008080808070707070606060605050505C6
:1022B000040404040303030302020202004000E0DA
:1022C00060EA000000F0FFFF9828000000F1FFFF27
:1022D00000F2FFFFA8000040454AD008C000454A70
:1022E00010600022434B5A60434A444B5A6000221C
:1022F0001A600100404A4A601A000A607047F8B547
:10230000040000200090FEF7C2FC3D480068002851
:1023100004D1FFF7E1FF012039490860002C09D002
:1023200008346007400F002804D06007400F0821E0
:10233000081A0419002C31D02F4884422ED22D4F78
:102340003800056801E02F002D686868A04202D2BD
:1023500028680028F7D1294885421FD038680830FE
:102360000090286838606868001B102810D92E1962
:102370006868001B70606C6071681E4800E000684F
:10238000026852688A42FAD3026832600660C04628
:102390001C4968680968081A1A490860FEF7B7FB03
:1023A0000098F8BC08BC184770B506003500002E30
:1023B00016D0083D2C00FEF76AFC61680D4800E06D
:1023C0000068026852688A42FAD302682260046098
:1023D0000C496068096840180A490860FEF797FBD5
:1023E00070BC08BC18470748006870477047000079
:1023F0005C020040AC000040F8330000B400004034
:10240000C0000040BC00004030B4441C03E0017830
:10241000401C00290ED08107F9D10B4BDD0104C807
:10242000D11A91432940FAD0001B0A0604D0C01EDD
:1024300030BC7047001BFBE70A0401D0801EF7E7A1
:102440000902F5D0401EF3E7010101017847C046BB
:10245000030052E32A00009A03C010E20800000AB9
:102460000130D1E402005CE30C2082E001C0D19491
:102470000130C0E40130D13401C0C094042042E2F4
:102480000130C034033011E28700000A042052E218
:102490001B00003A03C031E7020053E30800000AC2
:1024A0000F00008A2C34A0E104C0B1E5042052E200
:1024B0000C3C83E1043080E4F9FFFF2A011081E243
:1024C0000F0000EA2C38A0E104C0B1E5042052E27C
:1024D0000C3883E1043080E4F9FFFF2A021081E226
:1024E000070000EA2C3CA0E104C0B1E5042052E260
:1024F0000C3483E1043080E4F9FFFF2A031081E209
:102500000000A0E1822FB0E10130D12401C0D1242C
:102510000120D1440130C02401C0C0240120C044A6
:102520001EFF2FE1013090E12100004A0020B0E3BE
:10253000A03071E01A00003A203271E00F00003A3A
:10254000203471E00100003A00C0A0E3200000EA5E
:10255000A03371E0810340200220B2E0203371E01B
:10256000010340200220B2E0A03271E0810240204D
:102570000220B2E0203271E0010240200220B2E0ED
:10258000A03171E0810140200220B2E0203171E0F1
:10259000010140200220B2E0A03071E08100402023
:1025A0000220B2E0011050E00010A0310200A2E0D1
:1025B0001EFF2FE1022111E20010614240C032E013
:1025C00000006022203271E01D00003A203471E0EA
:1025D0000F00003A0113A0E1203471E03F2382E3B1
:1025E0000B00003A0113A0E1203471E03F2682E3A2
:1025F0000700003A0113A0E1203471E03F2982E393
:102600000113A0213F2C8223003071E21D00002A1B
:102610002113A021A03371E0810340200220B2E009
:10262000203371E0010340200220B2E0A03271E0CB
:10263000810240200220B2E0203271E001024020FD
:102640000220B2E0A03171E0810140200220B2E01E
:10265000203171E0010140200220B2E0EBFFFF2AAF
:10266000A03071E0810040200220B2E0011050E073
:102670000010A0310200A2E0CCCFB0E10000604227
:10268000001061221EFF2FE1CCCFB0E100006042BC
:1026900001402DE90000B0E30000A0E10240BDE8E8
:1026A0001EFF2FE1704770477047000010402DE972
:1026B000202052E20500003A1850B1E8202052E2F2
:1026C0001850A0E81850B1E81850A0E8F9FFFF2A08
:1026D00002CEB0E11850B1281850A0281800B14817
:1026E0001800A0481040BDE802CFB0E104309124AA
:1026F000043080241EFF2F01822FB0E1B230D120A0
:102700000120D144B230C0200120C0441EFF2FE17F
:102710000E50A0E11A0000EB05E0A0E10050B0E18E
:102720000D10A0E10A30A0E10700C0E300D0A0E155
:1027300060D08DE220402DE9B4F6FFEB2040BDE8EB
:102740000060A0E30070A0E30080A0E300B0A0E37D
:102750000710C1E305C0A0E1C009ACE8C009ACE8BE
:10276000C009ACE8C009ACE801D0A0E11EFF2FE130
:1027700010B50400C046C0462000FDF73FFD10BC68
:1027800008BC184700009FE51EFF2FE154360040AB
:1027900001C08FE21CFF2FE101491820ABDFFEE7EB
:1027A000260002001EFF2FE17847C0460020B0E35C
:1027B000203171E077FFFF3AA03271E06CFFFF3A01
:1027C000203471E061FFFF3A00C0A0E380FFFFEA20
:1027D0007847C0466C019FE5000090E500E090E579
:1027E00064019FE50200BEE8001080E50100BEE83C
:1027F00000F06FE1FF7FDEE80000A0E13CE09EE535
:1028000004F05EE2000000EF1EFF2FE104E08EE224
:1028100001002DE900204DE90000A0E104D04DE2C7
:102820000100BDE8004020E900E0A0E10100BDE8B2
:10283000FF7F4EE90000A0E13CE04EE200004FE1E6
:1028400001002EE900019FE5000090E501002EE95E
:10285000F0009FE5001090E500E081E5EC009FE5C9
:102860000FE0A0E110FF2FE1D8009FE5000090E508
:1028700000E090E5D0009FE50200BEE8001080E592
:102880000100BEE800F06FE1FF7FDEE80000A0E19C
:102890003CE09EE504F05EE201002DE900204DE9F8
:1028A0000000A0E104D04DE20100BDE8004020E9B5
:1028B00000E0A0E10100BDE8FF7F4EE90000A0E1DB
:1028C0003CE04EE200004FE101002EE978009FE578
:1028D000000090E501002EE968009FE5001090E5FA
:1028E00000E081E568009FE50FE0A0E110FF2FE127
:1028F000000050E30200000A50009FE50FE0A0E155
:1029000010FF2FE10100A0E348109FE5000081E5E2
:1029100044009FE5000080E528009FE5000090E569
:1029200000E090E520009FE50200BEE8001080E591
:102930000100BEE800F06FE1FF7FDEE80000A0E1EB
:102940003CE09EE504F05EE26C000040A800004020
:10295000270E0000150A0000004000E030F0FFFFE5
:102960007847C046A6FFFFEA7847C04600000FE15F
:10297000801080E301F021E1800000E21EFF2FE1E2
:102980007847C04600000FE18000C0E300F021E17D
:102990001EFF2FE17847C04601C05EE50C0053E101
:1029A0000100003A0C30DEE7000000EA0330DEE709
:1029B00083C08EE01CFF2FE1D829000000000040FA
:1029C000C4000000480100009C2A0000C400004030
:1029D000143C000070010000001000001101001202
:1029E0000100130100140100150100160100170178
:1029F000001801001901001A01001B01001D01004F
:102A00001E01001F0101100101110101120101133A
:102A1000010114010115010116010117010118013D
:102A2000011901011A01011B01011D01011E010112
:102A30001F011E0000000000000000000000000058
:102A40000000000000000000000000000000000086
:102A50000000000000000000000000000000000076
:102A60000000000000000000000000000000000066
:102A70000000000000000000000000000000000056
:102A80000F27000000000000000000000000000010
:0C2A900000000000F8330000000000000F
:0400000500000104F2
:00000001FF
