:020000040000FA
:1000000018F09FE518F09FE518F09FE518F09FE5C0
:1000100018F09FE50000A0E1F0FF1FE518F09FE554
:1000200058000000400000002C270000480000009D
:100030004C000000000000005000000054000000D0
:10004000FEFFFFEAFEFFFFEAFEFFFFEAFEFFFFEA18
:10005000FEFFFFEAFEFFFFEA94009FE5AA10A0E37F
:100060005520A0E32430A0E3043080E50130A0E374
:10007000003080E50C1080E50C2080E5083090E52C
:10008000013B13E2FCFFFF0A0330A0E3003080E5F0
:100090000C1080E50C2080E558009FE50410A0E3DB
:1000A000041080E50210A0E3001080E548009FE501
:1000B000DBF021E300D0A0E1080040E2D7F021E32B
:1000C00000D0A0E1080040E2D1F021E300D0A0E19F
:1000D000080040E2D2F021E300D0A0E1030C40E2AE
:1000E000D3F021E300D0A0E1030C40E20C009FE537
:1000F00010FF2FE180C01FE000C01FE0E03C004087
:1001000004010000000000EB2E0000EB2C008FE249
:10011000000C90E800A08AE000B08BE001704AE299
:100120000B005AE10000001A260000EB0F00BAE8AD
:1001300018E04FE2010013E303F0471013FF2FE133
:1001400098270000B8270000102052E27800B0285D
:100150007800A128FBFFFF8A822EB0E13000B02892
:100160003000A12800409045004081451EFF2FE14E
:100170000030B0E30040B0E30050B0E30060B0E313
:10018000102052E27800A128FCFFFF8A822EB0E105
:100190003000A128003081451EFF2FE101C08FE211
:1001A0001CFF2FE11FB5059886460FBC009C02B0CE
:1001B0007047000001C08FE21CFF2FE130B475468C
:1001C000AE4630BC70470000180900EB0210A0E1F9
:1001D000F1FFFFEB1CC09FE50FC08CE001001CE3AA
:1001E0000DE08F120FE0A0011CFF2FE101C08FE294
:1001F0001CFF2FE102F04CFA730300007847C04661
:1002000003002DE9EAFFFFEB0300BDE8270900EB3F
:100210000C009FE50C109FE504209FE508309FE54A
:100220001EFF2FE1C0360040C8390040C0360040F4
:1002300001002DE900204DE90000A0E104D04DE2CD
:100240000100BDE8004020E900E0A0E10100BDE8B8
:10025000FF7F4EE90000A0E13CE04EE200004FE1EC
:1002600001002EE94C009FE5000090E501002EE919
:1002700044009FE5001090E500E081E53C009FE52B
:100280000FE0A0E110FF2FE12C009FE5000090E5BA
:1002900000E090E51C009FE50200BEE8001080E54C
:1002A0000100BEE800F06FE1FF7FDEE80000A0E1A2
:1002B0003CE09EE504F05EE2B400004078000040BF
:1002C0005507000000205BE0410041185E4A515C88
:1002D000002902D0012950D127E0410041185A4A93
:1002E0008918897800290CD15849896842008218F8
:1002F000554BD218537801229A409143534A91604A
:1003000012E041004118504A8918897801290BD11F
:100310004E498968420082184B4BD218537801220B
:100320009A401143494A916028E041004118464AE9
:100330008918897800290CD14449896942008218BA
:10034000414BD218537801229A4091433F4A916120
:1003500012E0410041183C4A8918897801290BD1E3
:100360003A49896942008218374BD21853780122E2
:100370009A401143354A916100E0C046C046401C96
:100380003349098888429FDB70470200002A02D067
:10039000012A0CD105E02D4B1B68CB40D807C00FBC
:1003A00005E02A4B1B69CB40D807C00FC046C046AA
:1003B000704710B4002802D0012827D113E0002A8A
:1003C00007D1224BDB6801248C4023431F4CE360A0
:1003D00008E0012A06D11D4B5B6801248C402343B1
:1003E0001A4C636012E0002A07D1184BDB69012424
:1003F0008C402343154CE36108E0012A06D1134BDE
:100400005B6901248C402343104C6361C04610BCDF
:10041000704770B505000E0031002800FFF7B5FFEA
:100420000400012C05D1002231002800FFF7C1FF94
:1004300006E0002C04D1012231002800FFF7B9FFAB
:1004400070BC08BC1847000000000040008002E0BB
:100450005A00004010B5012212210020FFF7A9FF29
:1004600010BC08BC184710B511210020FFF7D1FFC0
:1004700010BC08BC1847C046C046FEE782B0C04664
:1004800000F063FA0190C046002212211000FFF72D
:1004900090FF13210020FFF7BCFF6E2101A800F0A0
:1004A0002DFCF1E782B0C04600F04FFA0190C04643
:1004B000002212211000FFF77CFF14210020FFF71B
:1004C000A8FFFF2101A800F019FCF1E782B000F0BD
:1004D0003CFA0190C04600235A1E43A146480068DA
:1004E00001F09EFA642101A800F008FCF3E784B053
:1004F00000F02BFA0090C0460022D24301A93E48EA
:10050000006801F0CDFB0C2101A800F0F9F81421DE
:10051000684600F0F3FB0A2000F0EFF8ECE77D20DE
:10052000C0003649C86008004068012108433349CB
:100530004860704710B5E120400200F08FF8FFF7E7
:10054000C1FEFFF7ECFF01202D49087010BC08BC6C
:10055000184784B0FFF7EEFF002214210A2001F0B3
:10056000A2F9254908606E20264901220023009245
:1005700001910290322224A1254800F0F1F9FF20D8
:10058000244901220023009201910290322222A1EB
:10059000234800F0E5F914202249032200230092A9
:1005A00001910290642220A1234800F0D9F964202F
:1005B000224902220023009201910290020020A110
:1005C000254800F0CDF900F06CFDC046FEE70B4871
:1005D0004068022108430949486008004068022138
:1005E0008843064948607047506572696F64696363
:1005F000537472696E67000070000040008000E074
:1006000000C11FE0600000407461736B31000000A6
:100610007D040000640000407461736B32000000D0
:10062000A50400006C000040556172745F52656360
:100630006569766572000000EF0400006800004004
:10064000506572696F6469635F5472616E736D693E
:100650007474657200000000CD04000070B50500E0
:100660005A480068012109040843584908600800F5
:100670000068012189040843544908602E013100B3
:10068000534802F021F804005248007B80210843BF
:10069000504908730C70240A0C710720087203205B
:1006A00008734814C068802188434B49C86008001B
:1006B0000069802108434849086148484849486022
:1006C00027204849486043480079032108434149AD
:1006D000087170BC08BC1847010043480078012825
:1006E00009D10020404A10704048007800060016EA
:1006F0000870012070470020FCE7364A10707047F0
:1007000070B505000C003A480078002820D1002D73
:100710001ED038490C7036490C70002303E0E85CA9
:100720003549C8545B1CA342F9DB31490A78097882
:10073000491E2F4E31702F490978891A2E4A515C73
:1007400009060816FFF7D9FF012070BC08BC18473E
:100750000020FAE710B41F4A107A2EE00207120FA9
:10076000022A0BD0042A1CD0062A02D00C2A20D13F
:1007700016E0184A127D110609161BE01C4A127871
:10078000002A0CDD1A4A13781278521E184C227077
:10079000184A1278D21A184B9A5C0E4B1A7009E05C
:1007A000C0460C4A1278114B1A7001220E4B1A7077
:1007B00000E0C046C046074A107AC207D20F002A9E
:1007C000CCD00022044B1A6310BC704700C002E07A
:1007D00000879303000001E000F0FFFF30020000FB
:1007E00000F1FFFF00F2FFFF7500004074000040C1
:1007F0007700004076000040D000004010B5FB4874
:1008000000F0B4FFFA4800F0B1FFFA4800F0AEFF84
:10081000F94800F0ABFFF94800F0A8FFF84800F0F5
:10082000A5FFF348F7490860F248F749086010BC93
:1008300008BC184710B5040001F0BCFCF348006880
:10084000401CF2490860F2480068002808D1F048CE
:1008500004600800006801280ED1FFF7CFFF0BE00D
:10086000EC480068002807D1E9480068C06AE16ADE
:10087000884201D8E6480460E7480068401CE64921
:100880000860211DD94800F08DFF01F09EFCE14871
:100890000068002807D0DE480068C06AE16A884224
:1008A00001D201F0EDFF10BC08BC1847FFB581B0C4
:1008B0000E000A9F0C9C216B0398401E80000818B4
:1008C00000900098C008C0000090002E11D00025B4
:1008D00008E0715D200034304155705D002800D182
:1008E00002E06D1C082DF4D3C04600213B200155C9
:1008F00002E0002134200155042F00D30327E762D2
:100900000E98E064E76300202064201D00F03BFFA8
:100910002000183000F037FF24610420C01BA061C4
:10092000646200206064002148200155049A6846F2
:1009300003C801F0D7FB20600B98002801D00B986A
:10094000046005B0F0BC08BC184710B501F032FCDB
:10095000B248046801F039FC200010BC08BC1847FC
:10096000FFB585B01700B80001F07BFC0600002E33
:100970000BD0502001F075FC0400002C01D0266340
:1009800004E0300001F0C2FC00E00024002C18D08C
:10099000FFF7DBFFE16C4018606000220FA803C87E
:1009A00001AB11C3039204910E9800903A00089B8A
:1009B00005A803C8FFF77AFF2000FFF73BFF0125DA
:1009C00001E00025ED43280009B0F0BC08BC184741
:1009D0008C4909680968002901D1012100E0002142
:1009E000002904D00021C9438D4A116006E08549E1
:1009F0000968C968C8688A4A41681160704710B5BB
:100A00000400206B01F082FC200001F07FFC10BC90
:100A100008BC184770B5050001F0CCFB002D02D1D1
:100A20007B48006800E028000400201D00F0D6FE8E
:100A3000A06A002803D02000183000F0CFFE7648CE
:100A40000068401C7449086071480068844209D1FC
:100A5000211D6A4800F09AFE72480068401C7149E6
:100A6000086009E069480068401E68490860200085
:100A7000FFF7C5FFFFF7ACFF01F0A7FB6548006873
:100A8000002805D062480068844201D101F0F8FED8
:100A900070BC08BC1847F8B5002000906248006898
:100AA000002867D15D480068451C5C480560002D42
:100AB0000FD15448076854480068524908605248AA
:100AC00007605A480068401C58490860FFF780FFDB
:100AD000C04653480068854234D3C0464948006840
:100AE0000068002801D1012000E00020002804D087
:100AF0000020C0434A49086023E042480068C068BB
:100B0000C4686668B54202D24548066019E0201DF7
:100B100000F064FEA06A002803D02000183000F026
:100B20005DFEE06C40196060211D304800F03AFE27
:100B300037496068096849688842CFD2012000902F
:100B4000CCE7C04632480068C06A1421484338499F
:100B50000858012801D90120009036480068002873
:100B600001D1FFF780FC34480068002801D0012043
:100B7000009006E02F480068401C2E490860FFF7EF
:100B800072FC0098F8BC08BC184770B50024002619
:100B900001F010FB24480068401E2349086008004B
:100BA000006800286AD119480068002866D016E05D
:100BB0001148C068C4682000183000F00FFE201DE6
:100BC00000F00CFE211D094800F0ECFD1049E06A20
:100BD0000968C96A884202D301201749086006489B
:100BE000006800282AD1012029E000004C020040C2
:100BF000E8010040FC0100401002004024020040D7
:100C0000380200407C000040800000408800004026
:100C10007800004094000040A40000408C00004098
:100C2000A800004084000040B0000040A000004048
:100C300098010040980000409C00004000200028DF
:100C4000B6D0002C01D0FFF7C3FEFB480568002D8D
:100C50000DD0C046FFF71FFF002802D00120F74942
:100C600008606D1E002DF5D10020F3490860F3489F
:100C70000068002802D0012601F002FE01F0A5FA6A
:100C8000300070BC08BC1847F8B505000E00EC48F1
:100C90000768EC480068001D00F0A0FD681C0028F3
:100CA00008D1002E06D0E7480168091DE64800F08B
:100CB0006DFD1AE07C19E34800684460BC4207D22D
:100CC000E0480168091DE148006800F06BFD0CE098
:100CD000DC480168091DDE48006800F063FDDD485E
:100CE0000068844201D2DB480460F8BC08BC1847A5
:100CF000D9480068401CD84908607047F3B581B0F6
:100D0000040000200090FFF7F3FFCD48066821683B
:100D100002980D182068B04207D92068A8420BD964
:100D2000B54209D90120009006E02068A84201D808
:100D3000B54201D90120009025600098002803D019
:100D4000A81B0021FFF7A0FFFFF71FFF0700002FE0
:100D500001D101F095FDFEBC08BC184770B5040038
:100D60000025002C08D0FFF7C3FF00212000FFF76B
:100D70008BFFFFF70AFF0500002D01D101F080FD78
:100D800070BC08BC184770B5040001F013FA002CC1
:100D900002D1AC48006800E020000600F56A01F0CE
:100DA00014FA280070BC08BC184710B401000023D6
:100DB000002902D1A34C246800E00C002200D06A74
:100DC00010BC7047FEB507000D0000200090042DF8
:100DD00000D3032501F0EEF9002F02D199480068F5
:100DE00000E038000400E66BAE423DD0B5420BD9BE
:100DF0009448006884420DD092480068C06AA842B6
:100E000008D80120009005E08E480068844201D196
:100E100001200090E06A0190E16AE06B884200D115
:100E2000E562E563A069C00FC007002802D1042075
:100E3000401BA0616169142201985043874A8018C1
:100E4000814201D1012000E00020002806D0201DB1
:100E500000F0C4FC211D824800F0A4FC009800288A
:100E600001D001F00DFDC04601F0AFF9FEBC08BC99
:100E7000184779480068002803D001206F490860AE
:100E800007E000206D4908607548C068C0686D497A
:100E90000860704770B5050001F08CF9002D02D193
:100EA0006848006800E028000400201D00F096FC5F
:100EB000A06A002803D02000183000F08FFC211D0C
:100EC000614800F063FC4820005D012802D1002148
:100ED0004820015501F079F962480068002805D0E2
:100EE00001F068F9FFF774FD01F06FF955480068EB
:100EF000844212D15B480068002802D001F0C0FC97
:100F00000BE05148006858490968884203D1002025
:100F10004C49086001E0FFF7ACFF70BC08BC184703
:100F200010B4010000200A00474C5369A34201D1CC
:100F3000012300E00023002B11D04C4C936AA34204
:100F400001D1012300E00023002B08D1936A002B7C
:100F500001D1012300E00023002B00D0012010BCB0
:100F6000704770B505002C0036480068844219D0DF
:100F7000002C17D001F01EF92000FFF7D1FF002848
:100F80000ED0201D00F02AFC211D354800F00AFC7F
:100F90002C49E06A0968C96A884201D301F070FCF3
:100FA00001F013F970BC08BC1847F8B5050000261D
:100FB0002C0000272000FFF7B3FF002817D0264899
:100FC000006800280ED11F49E06A0968C96A884292
:100FD00000D30126201D00F001FC211D204800F057
:100FE000E1FB04E021001831204800F0CFFB300085
:100FF000F8BC08BC184710B516E001F0DBF81C4837
:10100000C068C468201D00F0E9FB17480068401E56
:101010001549086017480068401E1649086001F02D
:10102000D4F82000FFF7EBFC124800680028E4D158
:1010300010BC08BC18470000980000409C0000400D
:101040008C000040780000403802004080000040E2
:101050007C000040A8000040B00000409801004023
:101060004C02004094000040880000401002004004
:101070002402004084000040C046FFF7BCFFFFF799
:1010800064FCF8490968C96C4018F6490968486069
:10109000F5480068012801D901F0F2FBFFF7DAF901
:1010A000EBE73EB54B25ED00F04800210B00322266
:1010B00001AC21C40091EEA1EF48FFF751FC040000
:1010C000012C0CD101F0E0FBA01EEC4908600120CE
:1010D000EB4908600020EB49086001F061F83EBC74
:1010E00008BC184710B501F0CFFB0020E4490860A8
:1010F00001F05FF810BC08BC18470021E14A1068F5
:101100007047E148006870470100002902D1D548C6
:10111000006800E00800020010003430704770B52D
:1011200004000025FFF7E4FDD84800680019D749FE
:101130000860FFF72AFD0500280070BC08BC1847AE
:1011400070B505000C00C74801681831280000F090
:1011500029FB01212000FFF797FD70BC08BC184750
:1011600070B506000C0015000120C0072043BD49E2
:1011700009688861BB4801681831300000F006FB3F
:1011800001212800FFF780FD70BC08BC184770B52E
:101190000600F068C4682000183000F01FFBBC484F
:1011A0000068002807D1201D00F018FB211DAE4863
:1011B00000F0F8FA04E021001831B64800F0E6FA31
:1011C000A849E06A0968C96A884204D90125012052
:1011D000B149086000E00025280070BC08BC184731
:1011E00070B504000E000120C00730432060E568A0
:1011F000200000F0F3FA281D00F0F0FA291D9A48AB
:1012000000F0D0FA9749E86A0968C96A884202D9A9
:101210000120A149086070BC08BC184710B5040043
:1012200000F0C8FF9D480068206096480068606034
:1012300000F0CBFF10BC08BC184798490968016052
:10124000904909684160704770B506000C0000F0D5
:10125000B1FF8C4802687068131A2068401C00288F
:1012600001D1002517E08D4930680968884204D013
:101270007068904201D801250DE02068984207D996
:101280002068C01A20603000FFF7D7FF002502E079
:1012900000202060012500F098FF280070BC08BCE9
:1012A000184701207C49086070476E4908687047FC
:1012B00070B505002C000026002D36D06949E06A83
:1012C0000968C96A884229D2A069C00FC0070028EE
:1012D00005D164480068C06A0421081AA06114227C
:1012E000E06A50436E4A80186169814201D1012051
:1012F00000E0002000280BD0201D00F06FFA5948B4
:101300000068C06AE062211D574800F04BFA03E014
:1013100054480068C06AE062012606E05149E06B6B
:101320000968C96A884200D20126300070BC08BC36
:10133000184770B505002C000026002D17D0206C32
:10134000401E2064E16BE06A884210D0206C0028C7
:101350000DD1201D00F042FAE06BE0620421E06A4A
:10136000081AA061211D404800F01CFA0126300037
:1013700070BC08BC1847FEB506000F003400012001
:101380000090002E2AD0E06BB84201D23D0000E070
:10139000E56BE06AA84221D0206C01281ED1E06AEA
:1013A0000190E562A069C00FC007002802D10420A7
:1013B000401BA0616169142201985043384A80188B
:1013C000814201D1012000E00020002806D0201D2C
:1013D00000F004FA211D244800F0E4F9FEBC08BC2A
:1013E00018472049096888691E490968C96A0422A2
:1013F000511A1C4A1268916170471A480068002807
:1014000006D01849096808004030096C491C016081
:1014100014480068704770B506000D0000F0CAFE61
:1014200010480068406C00280BD101210D4800686D
:1014300040300172002D04D02800FFF725FC01F098
:101440001FFA00F0C2FE00F0B5FE06480068446CCA
:10145000002C2BD0002E25D00020024909684864BA
:1014600024E00000780000404C020040AC00004046
:1014700049444C450000000079100000A8000040DD
:10148000940000408C00004088000040980000401C
:10149000B0000040100200409C000040A00000404E
:1014A00098010040601EAC49096848640021AA48C0
:1014B00000684030017200F088FE200070BC08BC5B
:1014C0001847FFB581B0070014001D0000F072FE40
:1014D000A14800684030007A022812D09E4909686D
:1014E00008004430496CB943016001219A48006802
:1014F00040300172002D04D02800FFF7C5FB01F039
:10150000BFF900F062FE00F055FE002C03D09248B7
:101510000068406C2060904800684030007A0228E3
:1015200001D0002608E08C490968080044304A6C64
:1015300002998A43026001260021874800684030F2
:10154000017200F042FE300005B0F0BC08BC184744
:10155000FFB583B00D0016001F0001200290039C10
:1015600000F028FE002F01D0606C38604820005D3C
:101570000190022148200155330001F09BF9051626
:1015800004080C0E1700606C284360640FE0606C68
:10159000401C60640BE0656409E00198022801D0FA
:1015A000656401E00020029001E000E0C046C04612
:1015B000019801280ED1201D00F010F9211D674867
:1015C00000F0F0F86449E06A0968C96A884201D904
:1015D00001F056F900F0F9FD029807B0F0BC08BC24
:1015E0001847FFB583B00D0016001F0001200190C1
:1015F000039C00200090002F01D0606C38604820D0
:10160000005D0290022148200155330001F052F99B
:10161000051604080C0E1700606C284360640FE088
:10162000606C401C60640BE0656409E0029802286D
:1016300001D0656401E00020019001E000E0C046B7
:10164000C046029801281FD145480068002807D1EC
:10165000201D00F0C3F8211D404800F0A3F804E06D
:10166000210018313F4800F091F83B49E06A0968D1
:10167000C96A884208D90C98002802D001210C9828
:101680000160012038490860019807B0F0BC08BC2F
:101690001847F8B505000E002C00002000904820E7
:1016A000075D02210155606C401C6064012F1DD153
:1016B0002B480068002807D1201D00F08FF8211D5D
:1016C000264800F06FF804E021001831254800F0AA
:1016D0005DF82149E06A0968C96A884206D9002E86
:1016E00001D00120306001201F490860F8BC08BC0F
:1016F000184770B50500002D02D11748006800E0BA
:101700002800060000F056FD4820805D022804D124
:10171000002148208155012400E0002400F055FDFF
:10172000200070BC08BC1847F8B504000D00002C60
:1017300002D10948006800E02000060000F03AFDF0
:1017400005480068476C706CA843706400F03DFD6C
:101750003800F8BC08BC1847780000404C02004034
:10176000B0000040100200409C0000400100083121
:1017700041600021C943816001000831C1600161FD
:1017800000210160704700210161704742684A6092
:1017900093688B60936859609160086103685B1C73
:1017A0000360704710B402000B685C1C002C01D170
:1017B000106907E01000083000E0406844682468C1
:1017C0009C42FAD944684C604C68A16088604160D2
:1017D0000A611468641C146010BC704701000A6937
:1017E0004B6888689860081D09C85860506888422E
:1017F00001D188685060002008611068401E1060A8
:101800001068704770B505000E002C0000F0D2FC87
:10181000216CE06B484321684018A0600020A06361
:1018200020686060E06B401E216C484321684118CD
:10183000E1600021C9434420015545200155002E97
:1018400010D12069002801D1012000E000200028EB
:1018500010D120001030FFF79AFC00280AD001F0C8
:101860000FF807E020001030FFF780FF2000243041
:10187000FFF77CFF00F0A9FC012070BC08BC1847F2
:10188000F8B506000D001700069C002D01D124605C
:1018900000E02760E663256401212000FFF7B2FF26
:1018A000F8BC08BC1847FEB505000E00170028005C
:1018B0007043029002990800483000F0D2FC040006
:1018C000002C0BD00194019C2000483001903B007B
:1018D000009431002800019AFFF7D2FF2000FEBCDF
:1018E00008BC184770B5040000F064FC452005579B
:1018F00014E0606A002801D1012000E000200028E7
:1019000008D120002430FFF742FC002803D0FFF765
:10191000C8FC00E004E0681E00060516002DE8DCA7
:10192000C0460021C9434520015500F04EFC00F09F
:1019300041FC4420055714E02069002801D1012012
:1019400000E0002000280BD120001030FFF71FFC22
:10195000002801D0FFF7A5FC681E0006051600E070
:1019600001E0002DE8DCC0460021C94344200155B8
:1019700000F02BFC70BC08BC184770B5050000F0E7
:1019800019FCA86BE96B884201D1012400E0002416
:1019900000F01BFC200070BC08BC1847F8B5040020
:1019A0000F00150000200090A66B206C002809D1C4
:1019B000206800282ED1A068FFF7BBFC0090002013
:1019C000A06027E0002D0FD13900226C606800F084
:1019D000CDFC216C606840186060A1686068884236
:1019E00018D32068606015E03900226CE06800F0D0
:1019F000BDFC216CE068411AE1602168E068884222
:101A000003D2216CA068411AE160022D02D1002EA0
:101A100000D0761E701CA0630098F8BC08BC184764
:101A2000FFB583B007001D00002002903C00C046B7
:101A300000F0C0FBA06BE16B884201D3022D21D1E5
:101A40002A0020000499FFF7A9FF0600606A002819
:101A500001D1012000E00020002808D1200024301E
:101A6000FFF795FB002806D000F00AFF03E0002EE8
:101A700001D000F005FF00F0A8FB012007B0F0BC8A
:101A800008BC18470598002803D100F09EFB0020F1
:101A9000F4E70298002804D16846FFF7CEFB012046
:101AA000029000F092FBFFF723F900F083FB442142
:101AB0000857401C002802D100214420015545212F
:101AC0000857401C002802D100214520015500F094
:101AD0007CFB05A96846FFF7B7FB002819D1200059
:101AE000FFF74BFF00280ED0200010300599FFF7BC
:101AF00027FB2000FFF7F6FEFFF747F8002897D1F5
:101B000000F0BEFE94E72000FFF7ECFEFFF73DF883
:101B10008EE72000FFF7E6FEFFF737F80020ADE77D
:101B200010B50400002C0AD00020A0602060002125
:101B3000E16000231A0019002000FFF771FF10BCBC
:101B400008BC1847F8B50400012600272200002130
:101B50000120FFF7A8FE05002800FFF7E1FF28009D
:101B6000F8BC08BC1847FFB585B0050016001F007B
:101B70002C0000200390A06BE16B884201D3022F60
:101B800029D1452001570291A06B01903A00200015
:101B90000699FFF703FF0298401C002812D1606AE3
:101BA000002801D1012000E00020002809D12000F8
:101BB0002430FFF7ECFA002803D0002E01D00120DA
:101BC000306005E00298401C0106091645200155C9
:101BD0000120049001E000200490049809B0F0BCBA
:101BE00008BC1847FEB505000E002C00002002902E
:101BF000A06B0190E16B0198814224D945200157E7
:101C000000910198401CA0630098401C002812D14C
:101C1000606A002801D1012000E00020002810D1D6
:101C200020002430FFF7B3FA00280AD0002E08D095
:101C30000120306005E00098401C0106091645208F
:101C40000155012700E000273800FEBC08BC1847FA
:101C500070B5050000F0AEFAA86B002801D1012490
:101C600000E0002400F0B1FA200070BC08BC184766
:101C700070B504000D00206C00280ED0216CE068C7
:101C80004118E160A168E068884201D32168E16001
:101C90002800226CE16800F069FB70BC08BC1847A2
:101CA000F7B582B0050000272C00C04600F082FA8C
:101CB000A66B002E1CD020000399FFF7D9FF701EE1
:101CC000A0632069002801D1012000E00020002845
:101CD00007D120001030FFF75AFA002801D000F099
:101CE000CFFD00F072FA012005B0F0BC08BC184727
:101CF0000498002803D100F068FA0020F4E7002FD0
:101D000003D16846FFF799FA012700F05EFAFEF763
:101D1000EFFF00F04FFA44210857401C002802D181
:101D200000214420015545210857401C002802D1BC
:101D300000214520015500F048FA04A96846FFF744
:101D400083FA002819D12000FFF782FF00280ED067
:101D5000200024300499FFF7F3F92000FFF7C2FDBB
:101D6000FEF713FF0028A1D100F08AFD9EE72000B6
:101D7000FFF7B8FDFEF709FF98E72000FFF7B2FD77
:101D8000FEF703FF2000FFF763FF00288ED000203E
:101D9000AAE701004A6A002A04D00A6B12680423E9
:101DA000981A00E000207047F3B583B005000027C3
:101DB0002C0000200090C04600F0FCF9A66B002E1D
:101DC0001ED0701EA0632068002802D1FFF715FB0B
:101DD000A0602069002801D1012000E00020002837
:101DE00007D120001030FFF7D2F9002801D000F011
:101DF00047FD00F0EAF9012005B0F0BC08BC184727
:101E00000498002803D100F0E0F90020F4E7002F47
:101E100003D101A8FFF711FA012700F0D6F9FEF768
:101E200067FF00F0C7F944210857401C002802D181
:101E300000214420015545210857401C002802D1AB
:101E400000214520015500F0C0F904A901A8FFF7C1
:101E5000FBF9002824D12000FFF7FAFE002819D052
:101E60002068002807D100F0A5F9A068FFF720FA44
:101E7000009000F0AAF9200024300499FFF760F9DF
:101E80002000FFF72FFDFEF780FE002894D100F020
:101E9000F7FC91E72000FFF725FDFEF776FE8BE7C4
:101EA0002000FFF71FFDFEF770FE2000FFF7D0FEB9
:101EB000002881D0009800280BD000F07BF920008A
:101EC000FFF767FF06003100A068FFF754FA00F043
:101ED0007CF9002090E7F7B584B0050000272C00BE
:101EE000C04600F067F9A06B0190019800281CD053
:101EF000E66820000599FFF7BBFEE660606A0028EF
:101F000001D1012000E00020002807D1200024306A
:101F1000FFF73DF9002801D000F0B2FC00F055F9C0
:101F2000012007B0F0BC08BC18470698002803D170
:101F300000F04BF90020F4E7002F03D102A8FFF7CF
:101F40007CF9012700F041F9FEF7D2FE00F032F9EA
:101F500044210857401C002802D10021442001558B
:101F600045210857401C002802D100214520015579
:101F700000F02BF906A902A8FFF766F9002819D18D
:101F80002000FFF765FE00280ED0200024300699BF
:101F9000FFF7D6F82000FFF7A5FCFEF7F6FD0028B6
:101FA0009FD100F06DFC9CE72000FFF79BFCFEF743
:101FB000ECFD96E72000FFF795FCFEF7E6FD20001C
:101FC000FFF746FE00288CD00020AAE7F7B584B0C2
:101FD000050016002C0000200390A06B02900298D0
:101FE000002828D044200157019120000599FFF7CF
:101FF0003FFE0298401EA0630198401C002812D1A9
:102000002069002801D1012000E00020002810D123
:1020100020001030FFF7BBF800280AD0002E08D0AF
:102020000120306005E00198401C0106091644209B
:102030000155012700E00027380007B0F0BC08BCBC
:102040001847F3B581B005002C0000200090A06B6C
:10205000002807D0E76820000299FFF709FEE76033
:10206000012600E000263000FEBC08BC184770B511
:10207000040000F09FF8A56B00F0A7F8280070BCE2
:1020800008BC184770B50400250000F093F8A96B50
:10209000E86B461A00F099F8300070BC08BC18478D
:1020A00001000A00906B704770B5040025002800FD
:1020B00000F02CF970BC08BC184701000A00936BB3
:1020C000002B01D1012000E00020704710B4010076
:1020D0000A00936BD46BA34201D1012000E00020E1
:1020E00010BC704730B40300001F0C1D0460001FBB
:1020F0003F4C0460001F0360001F3E4C0460001F43
:102100003D4C0460001F3D4C0460001F3C4C0460CB
:10211000001F3C4C0460001F3B4C0460001F3B4C04
:102120000460001F3A4C0460001F3A4C0460001F1A
:10213000394C0460001F394C0460001F64100460B7
:10214000001F0260001F1F240460CC07E40F002C56
:1021500003D0202504682C430460001F0024046081
:1021600030BC704700212E4AD1602E481100886192
:10217000032151615114C968102291432A4AD16048
:102180001100096910221143274A11612749284A81
:1021900011602421274A11600121214A51607047B2
:1021A00010B5FFF7DFFF00F0A3FA002010BC08BC59
:1021B0001847704710B500F067FB1F480068401CC7
:1021C0001D49086010BC08BC184710B51A480068C3
:1021D00000280AD018480068401E17490860080007
:1021E0000068002801D100F05BFB10BC08BC184758
:1021F000AAAAAAAA1212121211111111101010106B
:102200000909090908080808070707070606060656
:102210000505050504040404030303030202020286
:10222000004000E060EA000000F0FFFFB827000077
:1022300000F1FFFF00F2FFFFB4000040454AD00864
:10224000C000454A10600022434B5A60434A444B49
:102250005A6000221A600100404A4A601A000A606F
:102260007047F8B5040000200090FEF741FD3D489E
:102270000068002804D1FFF7E1FF01203949086018
:10228000002C09D008346007400F002804D06007F4
:10229000400F0821081A0419002C31D02F4884421D
:1022A0002ED22D4F3800056801E02F002D68686898
:1022B000A04202D228680028F7D1294885421FD0C1
:1022C000386808300090286838606868001B10285B
:1022D00010D92E196868001B70606C6071681E4808
:1022E00000E00068026852688A42FAD302683260ED
:1022F0000660C0461C4968680968081A1A490860DF
:10230000FEF743FC0098F8BC08BC184770B50600FF
:102310003500002E16D0083D2C00FEF7E9FC616860
:102320000D4800E00068026852688A42FAD30268E9
:10233000226004600C496068096840180A49086016
:10234000FEF723FC70BC08BC1847074800687047BC
:102350007047000068020040B8000040F8330000F9
:10236000C0000040CC000040C80000407847C04694
:10237000030052E32A00009A03C010E20800000A9A
:102380000130D1E402005CE30C2082E001C0D19472
:102390000130C0E40130D13401C0C094042042E2D5
:1023A0000130C034033011E28700000A042052E2F9
:1023B0001B00003A03C031E7020053E30800000AA3
:1023C0000F00008A2C34A0E104C0B1E5042052E2E1
:1023D0000C3C83E1043080E4F9FFFF2A011081E224
:1023E0000F0000EA2C38A0E104C0B1E5042052E25D
:1023F0000C3883E1043080E4F9FFFF2A021081E207
:10240000070000EA2C3CA0E104C0B1E5042052E240
:102410000C3483E1043080E4F9FFFF2A031081E2E9
:102420000000A0E1822FB0E10130D12401C0D1240D
:102430000120D1440130C02401C0C0240120C04487
:102440001EFF2FE1013090E12100004A0020B0E39F
:10245000A03071E01A00003A203271E00F00003A1B
:10246000203471E00100003A00C0A0E3200000EA3F
:10247000A03371E0810340200220B2E0203371E0FC
:10248000010340200220B2E0A03271E0810240202E
:102490000220B2E0203271E0010240200220B2E0CE
:1024A000A03171E0810140200220B2E0203171E0D2
:1024B000010140200220B2E0A03071E08100402004
:1024C0000220B2E0011050E00010A0310200A2E0B2
:1024D0001EFF2FE1022111E20010614240C032E0F4
:1024E00000006022203271E01D00003A203471E0CB
:1024F0000F00003A0113A0E1203471E03F2382E392
:102500000B00003A0113A0E1203471E03F2682E382
:102510000700003A0113A0E1203471E03F2982E373
:102520000113A0213F2C8223003071E21D00002AFC
:102530002113A021A03371E0810340200220B2E0EA
:10254000203371E0010340200220B2E0A03271E0AC
:10255000810240200220B2E0203271E001024020DE
:102560000220B2E0A03171E0810140200220B2E0FF
:10257000203171E0010140200220B2E0EBFFFF2A90
:10258000A03071E0810040200220B2E0011050E054
:102590000010A0310200A2E0CCCFB0E10000604208
:1025A000001061221EFF2FE1CCCFB0E1000060429D
:1025B00001402DE90000B0E30000A0E10240BDE8C9
:1025C0001EFF2FE1704770477047000010402DE953
:1025D000202052E20500003A1850B1E8202052E2D3
:1025E0001850A0E81850B1E81850A0E8F9FFFF2AE9
:1025F00002CEB0E11850B1281850A0281800B148F8
:102600001800A0481040BDE802CFB0E1043091248A
:10261000043080241EFF2F01822FB0E1B230D12080
:102620000120D144B230C0200120C0441EFF2FE160
:102630000E50A0E11A0000EB05E0A0E10050B0E16F
:102640000D10A0E10A30A0E10700C0E300D0A0E136
:1026500060D08DE220402DE9ECF6FFEB2040BDE894
:102660000060A0E30070A0E30080A0E300B0A0E35E
:102670000710C1E305C0A0E1C009ACE8C009ACE89F
:10268000C009ACE8C009ACE801D0A0E11EFF2FE111
:1026900010B50400C046C0462000FDF7AFFD10BCD9
:1026A00008BC184700009FE51EFF2FE16036004080
:1026B00001C08FE21CFF2FE101491820ABDFFEE7CC
:1026C000260002001EFF2FE17847C0460020B0E33D
:1026D000203171E077FFFF3AA03271E06CFFFF3AE2
:1026E000203471E061FFFF3A00C0A0E380FFFFEA01
:1026F0007847C0466C019FE5000090E500E090E55A
:1027000064019FE50200BEE8001080E50100BEE81C
:1027100000F06FE1FF7FDEE80000A0E13CE09EE515
:1027200004F05EE2000000EF1EFF2FE104E08EE205
:1027300001002DE900204DE90000A0E104D04DE2A8
:102740000100BDE8004020E900E0A0E10100BDE893
:10275000FF7F4EE90000A0E13CE04EE200004FE1C7
:1027600001002EE900019FE5000090E501002EE93F
:10277000F0009FE5001090E500E081E5EC009FE5AA
:102780000FE0A0E110FF2FE1D8009FE5000090E5E9
:1027900000E090E5D0009FE50200BEE8001080E573
:1027A0000100BEE800F06FE1FF7FDEE80000A0E17D
:1027B0003CE09EE504F05EE201002DE900204DE9D9
:1027C0000000A0E104D04DE20100BDE8004020E996
:1027D00000E0A0E10100BDE8FF7F4EE90000A0E1BC
:1027E0003CE04EE200004FE101002EE978009FE559
:1027F000000090E501002EE968009FE5001090E5DB
:1028000000E081E568009FE50FE0A0E110FF2FE107
:10281000000050E30200000A50009FE50FE0A0E135
:1028200010FF2FE10100A0E348109FE5000081E5C3
:1028300044009FE5000080E528009FE5000090E54A
:1028400000E090E520009FE50200BEE8001080E572
:102850000100BEE800F06FE1FF7FDEE80000A0E1CC
:102860003CE09EE504F05EE278000040B4000040E9
:10287000730E0000970A0000004000E030F0FFFFF8
:102880007847C046A6FFFFEA7847C04600000FE140
:10289000801080E301F021E1800000E21EFF2FE1C3
:1028A0007847C04600000FE18000C0E300F021E15E
:1028B0001EFF2FE17847C04601C05EE50C0053E1E2
:1028C0000100003A0C30DEE7000000EA0330DEE7EA
:1028D00083C08EE01CFF2FE1F828000000000040BC
:1028E000D000000048010000C8290000D0000040CE
:1028F000103C0000700100000010000011010012E7
:102900000100130100140100150100160100170158
:10291000001801001901001A01001B01001D01002F
:102920001E01001F0101100101110101120101131B
:10293000010114010115010116010117010118011E
:10294000011901011A01011B01011D01011E0101F3
:102950001F011E0000000000000000000000000039
:102960000000000000000000000000000000000067
:102970000000000000000000000000000000000057
:102980000000000000000000000000000000000047
:102990000000000000000000000000000000000037
:1029A0000000000000000000000000000F270000F1
:1029B0000000000000000000000000000000000017
:0829C000F833000000000000E4
:0400000500000104F2
:00000001FF
