:020000040000FA
:1000000018F09FE518F09FE518F09FE518F09FE5C0
:1000100018F09FE50000A0E1F0FF1FE518F09FE554
:100020005800000040000000341C000048000000A0
:100030004C000000000000005000000054000000D0
:10004000FEFFFFEAFEFFFFEAFEFFFFEAFEFFFFEA18
:10005000FEFFFFEAFEFFFFEA94009FE5AA10A0E37F
:100060005520A0E32430A0E3043080E50130A0E374
:10007000003080E50C1080E50C2080E5083090E52C
:10008000013B13E2FCFFFF0A0330A0E3003080E5F0
:100090000C1080E50C2080E558009FE50410A0E3DB
:1000A000041080E50210A0E3001080E548009FE501
:1000B000DBF021E300D0A0E1080040E2D7F021E32B
:1000C00000D0A0E1080040E2D1F021E300D0A0E19F
:1000D000080040E2D2F021E300D0A0E1030C40E2AE
:1000E000D3F021E300D0A0E1030C40E20C009FE537
:1000F00010FF2FE180C01FE000C01FE0D83C00408F
:1001000004010000000000EB2E0000EB2C008FE249
:10011000000C90E800A08AE000B08BE001704AE299
:100120000B005AE10000001A260000EB0F00BAE8AD
:1001300018E04FE2010013E303F0471013FF2FE133
:10014000A01C0000C01C0000102052E27800B02863
:100150007800A128FBFFFF8A822EB0E13000B02892
:100160003000A12800409045004081451EFF2FE14E
:100170000030B0E30040B0E30050B0E30060B0E313
:10018000102052E27800A128FCFFFF8A822EB0E105
:100190003000A128003081451EFF2FE101C08FE211
:1001A0001CFF2FE11FB5059886460FBC009C02B0CE
:1001B0007047000001C08FE21CFF2FE130B475468C
:1001C000AE4630BC704700005A0600EB0210A0E1BA
:1001D000F1FFFFEB1CC09FE50FC08CE001001CE3AA
:1001E0000DE08F120FE0A0011CFF2FE101C08FE294
:1001F0001CFF2FE101F0D0FC210300007847C0462E
:1002000003002DE9EAFFFFEB0300BDE8690600EB00
:100210000C009FE50C109FE504209FE508309FE54A
:100220001EFF2FE1B8360040C0390040B83600400C
:1002300001002DE900204DE90000A0E104D04DE2CD
:100240000100BDE8004020E900E0A0E10100BDE8B8
:10025000FF7F4EE90000A0E13CE04EE200004FE1EC
:1002600001002EE94C009FE5000090E501002EE919
:1002700044009FE5001090E500E081E53C009FE52B
:100280000FE0A0E110FF2FE12C009FE5000090E5BA
:1002900000E090E51C009FE50200BEE8001080E54C
:1002A0000100BEE800F06FE1FF7FDEE80000A0E1A2
:1002B0003CE09EE504F05EE2A80000406C000040D7
:1002C0007906000000205BE0410041185E4A515C65
:1002D000002902D0012950D127E0410041185A4A93
:1002E0008918897800290CD15849896842008218F8
:1002F000554BD218537801229A409143534A91604A
:1003000012E041004118504A8918897801290BD11F
:100310004E498968420082184B4BD218537801220B
:100320009A401143494A916028E041004118464AE9
:100330008918897800290CD14449896942008218BA
:10034000414BD218537801229A4091433F4A916120
:1003500012E0410041183C4A8918897801290BD1E3
:100360003A49896942008218374BD21853780122E2
:100370009A401143354A916100E0C046C046401C96
:100380003349098888429FDB70470200002A02D067
:10039000012A0CD105E02D4B1B68CB40D807C00FBC
:1003A00005E02A4B1B69CB40D807C00FC046C046AA
:1003B000704710B4002802D0012827D113E0002A8A
:1003C00007D1224BDB6801248C4023431F4CE360A0
:1003D00008E0012A06D11D4B5B6801248C402343B1
:1003E0001A4C636012E0002A07D1184BDB69012424
:1003F0008C402343154CE36108E0012A06D1134BDE
:100400005B6901248C402343104C6361C04610BCDF
:10041000704770B505000E0031002800FFF7B5FFEA
:100420000400012C05D1002231002800FFF7C1FF94
:1004300006E0002C04D1012231002800FFF7B9FFAB
:1004400070BC08BC1847000000000040008002E0BB
:100450005A00004010B5012212210020FFF7A9FF29
:1004600010BC08BC184710B511210020FFF7D1FFC0
:1004700010BC08BC1847C046C046FEE782B0C04664
:1004800000F0F5F90190C046002212211000FFF79C
:1004900090FF13210020FFF7BCFF6E2101A800F0A0
:1004A000BFFBF1E782B0C04600F0E1F90190C04621
:1004B000002212211000FFF77CFF14210020FFF71B
:1004C000A8FFFF2101A800F0ABFBF1E77D20C000F1
:1004D0002149C86008004068012108431E4948605E
:1004E000704710B5E120400200F04AF8FFF7EAFE3D
:1004F000FFF7ECFF01201949087010BC08BC184731
:1005000084B0FFF7EEFF6E20154901220023009210
:1005100001910290322213A1144800F0B3F9FF2098
:10052000134901220023009201910290322211A16D
:10053000124800F0A7F900F046FDC046FEE7064865
:1005400040680221084304494860080040680221CD
:100550008843014948607047008000E000C11FE007
:10056000600000407461736B310000007D04000086
:10057000640000407461736B32000000A504000049
:1005800070B505005A48006801210904084358491C
:100590000860080000680121890408435449086084
:1005A0002E013100534801F013FB04005248007B38
:1005B00080210843504908730C70240A0C710720ED
:1005C0000872032008734814C068802188434B498F
:1005D000C86008000069802108434849086148480C
:1005E000484948602720484948604348007903212A
:1005F00008434149087170BC08BC184701004348D2
:100600000078012809D10020404A10704048007845
:10061000000600160870012070470020FCE7364AEB
:100620001070704770B505000C003A48007800283B
:1006300020D1002D1ED038490C7036490C70002393
:1006400003E0E85C3549C8545B1CA342F9DB31493F
:100650000A780978491E2F4E31702F490978891A76
:100660002E4A515C09060816FFF7D9FF012070BC1D
:1006700008BC18470020FAE710B41F4A107A2EE091
:100680000207120F022A0BD0042A1CD0062A02D01D
:100690000C2A20D116E0184A127D110609161BE01B
:1006A0001C4A1278002A0CDD1A4A13781278521E5E
:1006B000184C2270184A1278D21A184B9A5C0E4BBA
:1006C0001A7009E0C0460C4A1278114B1A700122C8
:1006D0000E4B1A7000E0C046C046074A107AC207A7
:1006E000D20F002ACCD00022044B1A6310BC7047F2
:1006F00000C002E000879303000001E000F0FFFF6C
:100700003002000000F1FFFF00F2FFFF690000402F
:10071000680000406B0000406A000040C4000040D8
:1007200010B5FB4800F0B4FFFA4800F0B1FFFA48FA
:1007300000F0AEFFF94800F0ABFFF94800F0A8FF69
:10074000F84800F0A5FFF348F7490860F248F74978
:10075000086010BC08BC184710B5040001F04CF844
:10076000F3480068401CF2490860F248006800281D
:1007700008D1F04804600800006801280ED1FFF796
:10078000CFFF0BE0EC480068002807D1E94800687B
:10079000C06AE16A884201D8E6480460E748006818
:1007A000401CE6490860211DD94800F08DFF01F08A
:1007B0002EF8E1480068002807D0DE480068C06ACB
:1007C000E16A884201D201F0DFFA10BC08BC184788
:1007D000FFB581B00E000A9F0C9C216B0398401E50
:1007E0008000081800900098C008C0000090002EFB
:1007F00011D0002508E0715D200034304155705D56
:10080000002800D102E06D1C082DF4D3C046002161
:100810003B20015502E0002134200155042F00D374
:100820000327E7620E98E064E76300202064201D40
:1008300000F03BFF2000183000F037FF2461042057
:10084000C01BA06164620020606400214820015543
:10085000049A684603C800F067FF20600B980028E0
:1008600001D00B98046005B0F0BC08BC184710B567
:1008700000F0C2FFB248046800F0C9FF200010BCBD
:1008800008BC1847FFB585B01700B80001F00BF899
:100890000600002E0BD0502001F005F80400002CBB
:1008A00001D0266304E0300001F052F800E000249B
:1008B000002C18D0FFF7DBFFE16C401860600022CD
:1008C0000FA803C801AB11C3039204910E980090C6
:1008D0003A00089B05A803C8FFF77AFF2000FFF73E
:1008E0003BFF012501E00025ED43280009B0F0BCE5
:1008F00008BC18478C4909680968002901D1012101
:1009000000E00021002904D00021C9438D4A116074
:1009100006E085490968C968C8688A4A4168116063
:10092000704710B50400206B01F012F8200001F0B0
:100930000FF810BC08BC184770B5050000F05CFF4C
:10094000002D02D17B48006800E028000400201D33
:1009500000F0D6FEA06A002803D02000183000F076
:10096000CFFE76480068401C7449086071480068F2
:10097000844209D1211D6A4800F09AFE724800683D
:10098000401C7149086009E069480068401E6849D8
:1009900008602000FFF7C5FFFFF7ACFF00F037FF4E
:1009A00065480068002805D062480068844201D18B
:1009B00001F0EAF970BC08BC1847F8B500200090B7
:1009C00062480068002867D15D480068451C5C48A3
:1009D0000560002D0FD154480768544800685249FB
:1009E0000860524807605A480068401C584908602F
:1009F000FFF780FFC04653480068854234D3C046A5
:100A0000494800680068002801D1012000E000206A
:100A1000002804D00020C0434A49086023E042482F
:100A20000068C068C4686668B54202D2454806607E
:100A300019E0201D00F064FEA06A002803D0200009
:100A4000183000F05DFEE06C40196060211D3048F8
:100A500000F03AFE37496068096849688842CFD299
:100A600001200090CCE7C04632480068C06A1421DB
:100A7000484338490858012801D9012000903648D8
:100A80000068002801D1FFF7EEFC34480068002818
:100A900001D00120009006E02F480068401C2E493C
:100AA0000860FFF7E0FC0098F8BC08BC184770B578
:100AB0000024002600F0A0FE24480068401E2349C0
:100AC00008600800006800286AD1194800680028FA
:100AD00066D016E01148C068C4682000183000F0E5
:100AE0000FFE201D00F00CFE211D094800F0ECFD5A
:100AF0001049E06A0968C96A884202D3012017498F
:100B000008600648006800282AD1012029E000007A
:100B100040020040DC010040F001004004020040BF
:100B2000180200402C020040700000407400004099
:100B30007C0000406C0000408800004098000040AD
:100B4000800000409C00004078000040A40000406D
:100B5000940000408C0100408C0000409000004058
:100B600000200028B6D0002C01D0FFF7C3FEFB48C0
:100B70000568002D0DD0C046FFF71FFF002802D0EA
:100B80000120F74908606D1E002DF5D10020F349C2
:100B90000860F3480068002802D0012601F0F4F84C
:100BA00000F035FE300070BC08BC1847F8B50500F1
:100BB0000E00EC480768EC480068001D00F0A0FD3E
:100BC000681C002808D1002E06D0E7480168091DDE
:100BD000E64800F06DFD1AE07C19E34800684460C7
:100BE000BC4207D2E0480168091DE148006800F0F6
:100BF0006BFD0CE0DC480168091DDE48006800F070
:100C000063FDDD480068844201D2DB480460F8BC23
:100C100008BC1847D9480068401CD849086070478C
:100C2000F3B581B0040000200090FFF7F3FFCD483A
:100C30000668216802980D182068B04207D920681C
:100C4000A8420BD9B54209D90120009006E02068DE
:100C5000A84201D8B54201D9012000902560009832
:100C6000002803D0A81B0021FFF7A0FFFFF71FFFFC
:100C70000700002F01D101F087F8FEBC08BC18471F
:100C800070B504000025002C08D0FFF7C3FF002139
:100C90002000FFF78BFFFFF70AFF0500002D01D1B1
:100CA00001F072F870BC08BC184770B5040000F081
:100CB000A3FD002C02D1AC48006800E02000060033
:100CC000F56A00F0A4FD280070BC08BC184710B4F9
:100CD00001000023002902D1A34C246800E00C008D
:100CE0002200D06A10BC7047FEB507000D0000203E
:100CF0000090042D00D3032500F07EFD002F02D1CB
:100D00009948006800E038000400E66BAE423DD030
:100D1000B5420BD99448006884420DD092480068CF
:100D2000C06AA84208D80120009005E08E480068FB
:100D3000844201D101200090E06A0190E16AE06BF9
:100D4000884200D1E562E563A069C00FC0070028B2
:100D500002D10420401BA061616914220198504314
:100D6000874A8018814201D1012000E0002000283C
:100D700006D0201D00F0C4FC211D824800F0A4FC18
:100D80000098002801D000F0FFFFC04600F03FFDB2
:100D9000FEBC08BC184779480068002803D0012031
:100DA0006F49086007E000206D4908607548C06819
:100DB000C0686D490860704770B5050000F01CFD03
:100DC000002D02D16848006800E028000400201DC2
:100DD00000F096FCA06A002803D02000183000F034
:100DE0008FFC211D614800F063FC4820005D012854
:100DF00002D100214820015500F009FD6248006839
:100E0000002805D000F0F8FCFFF774FD00F0FFFCAF
:100E100055480068844212D15B480068002802D01F
:100E200000F0B2FF0BE05148006858490968884259
:100E300003D100204C49086001E0FFF7ACFF70BC13
:100E400008BC184710B4010000200A00474C536941
:100E5000A34201D1012300E00023002B11D04C4C10
:100E6000936AA34201D1012300E00023002B08D1A3
:100E7000936A002B01D1012300E00023002B00D056
:100E8000012010BC704770B505002C003648006882
:100E9000844219D0002C17D000F0AEFC2000FFF7E0
:100EA000D1FF00280ED0201D00F02AFC211D35485E
:100EB00000F00AFC2C49E06A0968C96A884201D33B
:100EC00000F062FF00F0A3FC70BC08BC1847F8B546
:100ED000050000262C0000272000FFF7B3FF0028A4
:100EE00017D02648006800280ED11F49E06A09681B
:100EF000C96A884200D30126201D00F001FC211D93
:100F0000204800F0E1FB04E021001831204800F007
:100F1000CFFB3000F8BC08BC184710B516E000F055
:100F20006BFC1C48C068C468201D00F0E9FB174832
:100F30000068401E1549086017480068401E1649A1
:100F4000086000F064FC2000FFF7EBFC124800682A
:100F50000028E4D110BC08BC184700008C000040F9
:100F600090000040800000406C0000402C020040D7
:100F700074000040700000409C000040A40000404D
:100F80008C01004040020040880000407C0000408E
:100F9000040200401802004078000040C046FFF7FD
:100FA000BCFFFFF764FCF8490968C96C4018F649B2
:100FB00009684860F5480068012801D900F0E4FE9E
:100FC000FFF748FAEBE73EB54B25ED00F04800216E
:100FD0000B00322201AC21C40091EEA1EF48FFF7D3
:100FE00051FC0400012C0CD100F0D2FEA01EEC49F3
:100FF00008600120EB4908600020EB49086000F020
:10100000F1FB3EBC08BC184710B500F0C1FE002043
:10101000E449086000F0EFFB10BC08BC1847002151
:10102000E14A10687047E1480068704701000029F4
:1010300002D1D548006800E00800020010003430FA
:10104000704770B504000025FFF7E4FDD84800683C
:101050000019D7490860FFF72AFD0500280070BC79
:1010600008BC184770B505000C00C7480168183166
:10107000280000F029FB01212000FFF797FD70BC3C
:1010800008BC184770B506000C0015000120C00709
:101090002043BD4909688861BB48016818313000A8
:1010A00000F006FB01212800FFF780FD70BC08BCA2
:1010B000184770B50600F068C4682000183000F0CA
:1010C0001FFBBC480068002807D1201D00F018FB5A
:1010D000211DAE4800F0F8FA04E021001831B648AE
:1010E00000F0E6FAA849E06A0968C96A884204D9AA
:1010F00001250120B149086000E00025280070BCEE
:1011000008BC184770B504000E000120C00730432A
:101110002060E568200000F0F3FA281D00F0F0FAE6
:10112000291D9A4800F0D0FA9749E86A0968C96A07
:10113000884202D90120A149086070BC08BC184748
:1011400010B5040000F058FB9D48006820609648E8
:101150000068606000F05BFB10BC08BC1847984951
:1011600009680160904909684160704770B50600E0
:101170000C0000F041FB8C4802687068131A20686C
:10118000401C002801D1002517E08D49306809680E
:10119000884204D07068904201D801250DE0206893
:1011A000984207D92068C01A20603000FFF7D7FFA7
:1011B000002502E000202060012500F028FB280027
:1011C00070BC08BC184701207C49086070476E4914
:1011D0000868704770B505002C000026002D36D039
:1011E0006949E06A0968C96A884229D2A069C00FC2
:1011F000C007002805D164480068C06A0421081AA5
:10120000A0611422E06A50436E4A801861698142ED
:1012100001D1012000E0002000280BD0201D00F0AB
:101220006FFA59480068C06AE062211D574800F013
:101230004BFA03E054480068C06AE062012606E009
:101240005149E06B0968C96A884200D20126300022
:1012500070BC08BC184770B505002C000026002D96
:1012600017D0206C401E2064E16BE06A884210D0E9
:10127000206C00280DD1201D00F042FAE06BE062E6
:101280000421E06A081AA061211D404800F01CFA00
:101290000126300070BC08BC1847FEB506000F00E0
:1012A000340001200090002E2AD0E06BB84201D219
:1012B0003D0000E0E56BE06AA84221D0206C0128E7
:1012C0001ED1E06A0190E562A069C00FC007002846
:1012D00002D10420401BA06161691422019850438F
:1012E000384A8018814201D1012000E00020002806
:1012F00006D0201D00F004FA211D244800F0E4F976
:10130000FEBC08BC18472049096888691E4909685D
:10131000C96A0422511A1C4A1268916170471A481E
:101320000068002806D01849096808004030096C98
:10133000491C016014480068704770B506000D0034
:1013400000F05AFA10480068406C00280BD10121C7
:101350000D48006840300172002D04D02800FFF7CE
:1013600025FC00F011FD00F052FA00F045FA0648A5
:101370000068446C002C2BD0002E25D000200249A0
:101380000968486424E000006C000040400200400E
:10139000A000004049444C45000000009D0F0000A3
:1013A0009C00004088000040800000407C0000401D
:1013B0008C000040A4000040040200409000004067
:1013C000940000408C010040601EAC4909684864EC
:1013D0000021AA4800684030017200F018FA20008D
:1013E00070BC08BC1847FFB581B0070014001D0091
:1013F00000F002FAA14800684030007A022812D0BA
:101400009E49096808004430496CB94301600121D4
:101410009A48006840300172002D04D02800FFF780
:10142000C5FB00F0B1FC00F0F2F900F0E5F9002C8A
:1014300003D092480068406C2060904800684030BB
:10144000007A022801D0002608E08C4909680800CB
:1014500044304A6C02998A43026001260021874881
:1014600000684030017200F0D2F9300005B0F0BCE5
:1014700008BC1847FFB583B00D0016001F000120FF
:101480000290039C00F0B8F9002F01D0606C386026
:101490004820005D0190022148200155330000F0F2
:1014A0008DFC051604080C0E1700606C2843606460
:1014B0000FE0606C401C60640BE0656409E001981B
:1014C000022801D0656401E00020029001E000E004
:1014D000C046C046019801280ED1201D00F010F929
:1014E000211D674800F0F0F86449E06A0968C96A9C
:1014F000884201D900F048FC00F089F9029807B051
:10150000F0BC08BC1847FFB583B00D0016001F00E3
:1015100001200190039C00200090002F01D0606CFE
:1015200038604820005D02900221482001553300B8
:1015300000F044FC051604080C0E1700606C2843EC
:1015400060640FE0606C401C60640BE0656409E05F
:101550000298022801D0656401E00020019001E0BA
:1015600000E0C046C046029801281FD145480068E7
:10157000002807D1201D00F0C3F8211D404800F0CD
:10158000A3F804E0210018313F4800F091F83B49EE
:10159000E06A0968C96A884208D90C98002802D014
:1015A00001210C980160012038490860019807B0BA
:1015B000F0BC08BC1847F8B505000E002C00002050
:1015C00000904820075D02210155606C401C60645A
:1015D000012F1DD12B480068002807D1201D00F0E5
:1015E0008FF8211D264800F06FF804E02100183123
:1015F000254800F05DF82149E06A0968C96A884217
:1016000006D9002E01D00120306001201F4908605A
:10161000F8BC08BC184770B50500002D02D117486A
:10162000006800E02800060000F0E6F84820805D31
:10163000022804D1002148208155012400E0002423
:1016400000F0E5F8200070BC08BC1847F8B50400AD
:101650000D00002C02D10948006800E020000600BF
:1016600000F0CAF805480068476C706CA8437064C5
:1016700000F0CDF83800F8BC08BC18476C000040FA
:1016800040020040A40000400402004090000040DE
:101690000100083141600021C94381600100083127
:1016A000C160016100210160704700210161704744
:1016B00042684A6093688B609368596091600861E2
:1016C00003685B1C0360704710B402000B685C1C6D
:1016D000002C01D1106907E01000083000E04068DC
:1016E000446824689C42FAD944684C604C68A16004
:1016F000886041600A611468641C146010BC704703
:1017000001000A694B6888689860081D09C858601C
:101710005068884201D188685060002008611068D4
:10172000401E10601068704730B40300001F0C1D8D
:101730000460001F3F4C0460001F0360001F3E4C0C
:101740000460001F3D4C0460001F3D4C0460001FFE
:101750003C4C0460001F3C4C0460001F3B4C046088
:10176000001F3B4C0460001F3A4C0460001F3A4CC1
:101770000460001F394C0460001F394C0460001FD6
:1017800064100460001F0260001F1F240460CC0767
:10179000E40F002C03D0202504682C430460001FB4
:1017A0000024046030BC704700212E4AD1602E48CE
:1017B00011008861032151615114C96810229143BD
:1017C0002A4AD1601100096910221143274A116188
:1017D0002749284A11602421274A11600121214A02
:1017E0005160704710B5FFF7DFFF00F005FA0020E9
:1017F00010BC08BC1847704710B500F0C9FA1F4864
:101800000068401C1D49086010BC08BC184710B592
:101810001A48006800280AD018480068401E174976
:10182000086008000068002801D100F0BDFA10BC73
:1018300008BC1847AAAAAAAA121212121111111151
:1018400010101010090909090808080807070707F8
:101850000606060605050505040404040303030340
:1018600002020202004000E060EA000000F0FFFF18
:10187000C01C000000F1FFFF00F2FFFFA8000040C5
:10188000454AD008C000454A10600022434B5A60C8
:10189000434A444B5A6000221A600100404A4A60A1
:1018A0001A000A607047F8B5040000200090FFF7A6
:1018B000B1F93D480068002804D1FFF7E1FF01209D
:1018C00039490860002C09D008346007400F00280F
:1018D00004D06007400F0821081A0419002C31D0E9
:1018E0002F4884422ED22D4F3800056801E02F008A
:1018F0002D686868A04202D228680028F7D12948DC
:1019000085421FD0386808300090286838606868C1
:10191000001B102810D92E196868001B70606C60BD
:1019200071681E4800E00068026852688A42FAD373
:10193000026832600660C0461C4968680968081A77
:101940001A490860FFF7B3F80098F8BC08BC1847BC
:1019500070B506003500002E16D0083D2C00FFF7AC
:1019600059F961680D4800E00068026852688A42CF
:10197000FAD30268226004600C4960680968401864
:101980000A490860FFF793F870BC08BC184707487D
:1019900000687047704700005C020040AC000040E7
:1019A000F8330000B4000040C0000040BC0000401C
:1019B000013090E12100004A0020B0E3A03071E046
:1019C0001A00003A203271E00F00003A203471E032
:1019D0000100003A00C0A0E3200000EAA03371E05B
:1019E000810340200220B2E0203371E00103402057
:1019F0000220B2E0A03271E0810240200220B2E079
:101A0000203271E0010240200220B2E0A03171E0FA
:101A1000810140200220B2E0203171E0010140202C
:101A20000220B2E0A03071E0810040200220B2E04C
:101A3000011050E00010A0310200A2E01EFF2FE1D3
:101A4000022111E20010614240C032E00000602239
:101A5000203271E01D00003A203471E00F00003A9E
:101A60000113A0E1203471E03F2382E30B00003A30
:101A70000113A0E1203471E03F2682E30700003A21
:101A80000113A0E1203471E03F2982E30113A0217A
:101A90003F2C8223003071E21D00002A2113A02177
:101AA000A03371E0810340200220B2E0203371E0D6
:101AB000010340200220B2E0A03271E08102402008
:101AC0000220B2E0203271E0010240200220B2E0A8
:101AD000A03171E0810140200220B2E0203171E0AC
:101AE000010140200220B2E0EBFFFF2AA03071E0AC
:101AF000810040200220B2E0011050E00010A0312F
:101B00000200A2E0CCCFB0E10000604200106122F0
:101B10001EFF2FE1CCCFB0E10000604201402DE973
:101B20000000B0E30000A0E10240BDE81EFF2FE18D
:101B300070477047704700000E50A0E11A0000EB9C
:101B400005E0A0E10050B0E10D10A0E10A30A0E1F5
:101B50000700C0E300D0A0E160D08DE220402DE975
:101B6000AAF9FFEB2040BDE80060A0E30070A0E30D
:101B70000080A0E300B0A0E30710C1E305C0A0E12E
:101B8000C009ACE8C009ACE8C009ACE8C009ACE8E1
:101B900001D0A0E11EFF2FE110B50400C046C046F1
:101BA0002000FEF72BFB10BC08BC184700009FE587
:101BB0001EFF2FE15436004001C08FE21CFF2FE1D1
:101BC00001491820ABDFFEE7260002001EFF2FE1CF
:101BD0007847C0460020B0E3203171E090FFFF3A23
:101BE000A03271E085FFFF3A203471E07AFFFF3ABE
:101BF00000C0A0E399FFFFEA7847C0466C019FE56B
:101C0000000090E500E090E564019FE50200BEE879
:101C1000001080E50100BEE800F06FE1FF7FDEE824
:101C20000000A0E13CE09EE504F05EE2000000EF71
:101C30001EFF2FE104E08EE201002DE900204DE9B6
:101C40000000A0E104D04DE20100BDE8004020E921
:101C500000E0A0E10100BDE8FF7F4EE90000A0E147
:101C60003CE04EE200004FE101002EE900019FE55B
:101C7000000090E501002EE9F0009FE5001090E5DE
:101C800000E081E5EC009FE50FE0A0E110FF2FE10F
:101C9000D8009FE5000090E500E090E5D0009FE5CA
:101CA0000200BEE8001080E50100BEE800F06FE130
:101CB000FF7FDEE80000A0E13CE09EE504F05EE28C
:101CC00001002DE900204DE90000A0E104D04DE223
:101CD0000100BDE8004020E900E0A0E10100BDE80E
:101CE000FF7F4EE90000A0E13CE04EE200004FE142
:101CF00001002EE978009FE5000090E501002EE943
:101D000068009FE5001090E500E081E568009FE530
:101D10000FE0A0E110FF2FE1000050E30200000AF5
:101D200050009FE50FE0A0E110FF2FE10100A0E3CC
:101D300048109FE5000081E544009FE5000080E534
:101D400028009FE5000090E500E090E520009FE579
:101D50000200BEE8001080E50100BEE800F06FE17F
:101D6000FF7FDEE80000A0E13CE09EE504F05EE2DB
:101D70006C000040A8000040970D0000BB09000067
:101D8000004000E030F0FFFF7847C046A6FFFFEAC2
:101D90007847C04600000FE1801080E301F021E1A8
:101DA000800000E21EFF2FE17847C04600000FE1EF
:101DB0008000C0E300F021E11EFF2FE17847C0461C
:101DC00001C05EE50C0053E10100003A0C30DEE793
:101DD000000000EA0330DEE783C08EE01CFF2FE145
:101DE000001E000000000040C40000004801000088
:101DF000C41E0000C4000040143C0000700100003C
:101E00000010000011010012010013010014010074
:101E10001501001601001701001801001901001A30
:101E200001001B01001D01001E01001F0101100126
:101E30000111010112010113010114010115010138
:101E40001601011701011801011901011A01011BF5
:101E500001011D01011E01011F011E000000000003
:101E60000000000000000000000000000000000072
:101E70000000000000000000000000000000000062
:101E80000000000000000000000000000000000052
:101E90000000000000000000000000000000000042
:101EA00000000000000000000F27000000000000FC
:101EB000000000000000000000000000F8330000F7
:041EC000000000001E
:0400000500000104F2
:00000001FF
