:020000040000FA
:1000000018F09FE518F09FE518F09FE518F09FE5C0
:1000100018F09FE50000A0E1F0FF1FE518F09FE554
:100020005800000040000000D41B00004800000001
:100030004C000000000000005000000054000000D0
:10004000FEFFFFEAFEFFFFEAFEFFFFEAFEFFFFEA18
:10005000FEFFFFEAFEFFFFEA94009FE5AA10A0E37F
:100060005520A0E32430A0E3043080E50130A0E374
:10007000003080E50C1080E50C2080E5083090E52C
:10008000013B13E2FCFFFF0A0330A0E3003080E5F0
:100090000C1080E50C2080E558009FE50410A0E3DB
:1000A000041080E50210A0E3001080E548009FE501
:1000B000DBF021E300D0A0E1080040E2D7F021E32B
:1000C00000D0A0E1080040E2D1F021E300D0A0E19F
:1000D000080040E2D2F021E300D0A0E1030C40E2AE
:1000E000D3F021E300D0A0E1030C40E20C009FE537
:1000F00010FF2FE180C01FE000C01FE0D03C004097
:1001000004010000000000EB2E0000EB2C008FE249
:10011000000C90E800A08AE000B08BE001704AE299
:100120000B005AE10000001A260000EB0F00BAE8AD
:1001300018E04FE2010013E303F0471013FF2FE133
:10014000401C0000601C0000102052E27800B02823
:100150007800A128FBFFFF8A822EB0E13000B02892
:100160003000A12800409045004081451EFF2FE14E
:100170000030B0E30040B0E30050B0E30060B0E313
:10018000102052E27800A128FCFFFF8A822EB0E105
:100190003000A128003081451EFF2FE101C08FE211
:1001A0001CFF2FE11FB5059886460FBC009C02B0CE
:1001B0007047000001C08FE21CFF2FE130B475468C
:1001C000AE4630BC70470000420600EB0210A0E1D2
:1001D000F1FFFFEB1CC09FE50FC08CE001001CE3AA
:1001E0000DE08F120FE0A0011CFF2FE101C08FE294
:1001F0001CFF2FE101F0A0FC7B0200007847C04605
:1002000003002DE9EAFFFFEB0300BDE8510600EB18
:100210000C009FE50C109FE504209FE508309FE54A
:100220001EFF2FE1B0360040B8390040B036004024
:1002300001002DE900204DE90000A0E104D04DE2CD
:100240000100BDE8004020E900E0A0E10100BDE8B8
:10025000FF7F4EE90000A0E13CE04EE200004FE1EC
:1002600001002EE94C009FE5000090E501002EE919
:1002700044009FE5001090E500E081E53C009FE52B
:100280000FE0A0E110FF2FE12C009FE5000090E5BA
:1002900000E090E51C009FE50200BEE8001080E54C
:1002A0000100BEE800F06FE1FF7FDEE80000A0E1A2
:1002B0003CE09EE504F05EE2A000004064000040E7
:1002C000B105000000205BE041004118514A515C3B
:1002D000002902D0012950D127E0410041184D4AA0
:1002E0008918897800290CD14B4989684200821805
:1002F000484BD218537801229A409143464A916064
:1003000012E041004118434A8918897801290BD12C
:1003100041498968420082183E4BD2185378012225
:100320009A4011433C4A916028E041004118394A03
:100330008918897800290CD13749896942008218C7
:10034000344BD218537801229A409143324A91613A
:1003500012E0410041182F4A8918897801290BD1F0
:100360002D498969420082182A4BD21853780122FC
:100370009A401143284A916100E0C046C046401CA3
:100380002649098888429FDB70470200002A02D074
:10039000012A0CD105E0204B1B68CB40D807C00FC9
:1003A00005E01D4B1B69CB40D807C00FC046C046B7
:1003B000704710B4002802D0012827D113E0002A8A
:1003C00007D1154BDB6801248C402343124CE360BA
:1003D00008E0012A06D1104B5B6801248C402343BE
:1003E0000D4C636012E0002A07D10B4BDB6901243E
:1003F0008C402343084CE36108E0012A06D1064BF8
:100400005B6901248C402343034C6361C04610BCEC
:100410007047000000000040008002E05A000040E9
:10042000C046C046FEE77D20C0001C49C8600800E9
:1004300040680121084319494860704710B5E12020
:10044000400200F039F8FFF73DFFFFF7ECFF012015
:100450001349087010BC08BC184784B0FFF7EEFFC2
:10046000642010490222002300920191029032225E
:100470000DA1104800F0D0F900F074FDC046FEE771
:100480000648406802210843044948600800406863
:10049000022188430149486070470000008000E065
:1004A00000C11FE05C000040554152545F5461732D
:1004B0006B3100002104000070B505005A48006847
:1004C0000121090408435849086008000068012117
:1004D00089040843544908602E013100534801F053
:1004E00047FB04005248007B8021084350490873B1
:1004F0000C70240A0C71072008720320087348143A
:10050000C068802188434B49C86008000069802189
:1005100008434849086148484849486027204849F5
:10052000486043480079032108434149087170BC81
:1005300008BC1847010043480078012809D1002071
:10054000404A1070404800780006001608700120EC
:1005500070470020FCE7364A1070704770B5050000
:100560000C003A480078002820D1002D1ED03849D0
:100570000C7036490C70002303E0E85C3549C85420
:100580005B1CA342F9DB31490A780978491E2F4EDA
:1005900031702F490978891A2E4A515C09060816CC
:1005A000FFF7D9FF012070BC08BC18470020FAE70C
:1005B00010B41F4A107A2EE00207120F022A0BD045
:1005C000042A1CD0062A02D00C2A20D116E0184A90
:1005D000127D110609161BE01C4A1278002A0CDD58
:1005E0001A4A13781278521E184C2270184A127840
:1005F000D21A184B9A5C0E4B1A7009E0C0460C4A8E
:100600001278114B1A7001220E4B1A7000E0C0468E
:10061000C046074A107AC207D20F002ACCD0002267
:10062000044B1A6310BC704700C002E000879303BC
:10063000000001E000F0FFFF3002000000F1FFFFCA
:1006400000F2FFFF610000406000004063000040D6
:1006500062000040BC00004010B5FD4800F0E8FF1B
:10066000FC4800F0E5FFFC4800F0E2FFFB4800F02A
:10067000DFFFFB4800F0DCFFFA4800F0D9FFF54847
:10068000F9490860F448F949086010BC08BC1847EB
:1006900010B5040001F080F8F5480068401CF449EA
:1006A0000860F4480068002808D1F2480460080097
:1006B000006801280ED1FFF7CFFF0BE0EE4800687D
:1006C000002807D1EB480068C06AE16A884201D877
:1006D000E8480460E9480068401CE8490860211DBA
:1006E000DB4800F0C1FF01F062F8E3480068002831
:1006F00007D0E0480068C06AE16A884201D201F090
:1007000013FB10BC08BC1847FFB581B00E000A9F50
:100710000C9C216B0398401E8000081800900098E4
:10072000C008C0000090002E11D0002508E0715DC7
:10073000200034304155705D002800D102E06D1C6E
:10074000082DF4D3C04600213B20015502E00021D2
:1007500034200155042F00D30327E762E76300200C
:100760002064201D00F071FF2000183000F06DFFA4
:1007700024610420C01BA061646200206064002129
:1007800048200155049A684603C800F09DFF206088
:100790000B98002801D00B98046005B0F0BC08BC91
:1007A0001847FFB585B01700B80001F04CF80600F7
:1007B000002E0BD0502001F046F80400002C01D090
:1007C000266304E0300001F093F800E00024002CE0
:1007D00010D000220EA803C86B4613C303923A0040
:1007E000089B05A803C8FFF78FFF2000FFF750FF05
:1007F000012501E00025ED43280009B0F0BC08BC4C
:10080000184710B500F0C8FF9D48046800F0CFFFFE
:10081000200010BC08BC1847FFB585B01700B80011
:1008200001F011F80600002E0BD0502001F00BF85B
:100830000400002C01D0266304E0300001F058F8D9
:1008400000E00024002C17D01098E064FFF7D9FFD7
:10085000E16C401860602000FFF71AFF00220EA82C
:1008600003C86B4613C303923A00089B05A803C84C
:10087000FFF74AFF012501E00025ED43280009B0FC
:10088000F0BC08BC1847784909680968002901D1FB
:10089000012100E00021002904D00021C943794A48
:1008A000116006E070490968C968C868754A4168FE
:1008B0001160704710B50400206B01F019F820009A
:1008C00001F016F810BC08BC184770B5050000F020
:1008D00063FF002D02D16748006800E02800040093
:1008E000201D00F0DDFEA06A002803D02000183093
:1008F00000F0D6FE61480068401C604908605D4811
:100900000068844209D1211D554800F0A1FE5E48CF
:100910000068401C5C49086009E055480068401EBA
:10092000534908602000FFF7C5FFFFF7ACFF00F058
:100930003EFF51480068002805D04E4800688442B8
:1009400001D101F0F1F970BC08BC1847F8B50020DE
:1009500000904E48006800285ED149480068451C58
:1009600047480560002D0FD13F4807683F480068A1
:100970003D4908603D48076045480068401C4449BF
:100980000860FFF780FFC0463E480068854231D3CB
:10099000C046354800680068002801D1012000E009
:1009A0000020002804D00020C0433649086020E021
:1009B0002D480068C068C4686668B54202D23148F4
:1009C000066016E0201D00F06BFEA06A002803D030
:1009D0002000183000F064FE211D1D4800F044FE88
:1009E0002449E06A0968C96A8842D2D3012000908C
:1009F000CFE7C0461F480068C06A14214843254914
:100A00000858012801D901200090234800680028D7
:100A100001D00120009004E020480068401C1F49DC
:100A200008600098F8BC08BC184770B50024002680
:100A300000F0B2FE15480068401E14490860080026
:100A40000068002869D10A480068002865D03EE0A7
:100A500038020040D4010040E8010040FC010040A1
:100A60001002004024020040680000406C0000407A
:100A7000740000406400004080000040900000408E
:100A80007800004094000040700000409C0000404E
:100A90008C00004084010040880000408400004039
:100AA000F948C068C4682000183000F0F9FD201D26
:100AB00000F0F6FD211DF54800F0D6FDF449E06A8E
:100AC0000968C96A884202D30120F2490860EE48E9
:100AD0000068002801D1012000E000200028DFD0BC
:100AE000002C01D0FFF7CFFEEB480568002D0DD09C
:100AF000C046FFF72BFF002802D00120E54908601F
:100B00006D1E002DF5D10020E3490860E148006822
:100B1000002802D0012601F007F900F048FE30005D
:100B200070BC08BC1847F8B505000E00DB48076824
:100B3000D7480068001D00F0B3FD681C002808D1EC
:100B4000002E06D0D2480168091DD54800F080FD6E
:100B50001AE07C19CE4800684460BC4207D2CC48F9
:100B60000168091DCF48006800F07EFD0CE0C84810
:100B70000168091DCC48006800F076FDCB4800688C
:100B8000844201D2C9480460F8BC08BC1847C84870
:100B90000068401CC64908607047F3B581B0040086
:100BA00000200090FFF7F3FFBC4806682168029818
:100BB0000D182068B04207D92068A8420BD9B54269
:100BC00009D90120009006E02068A84201D8B5426A
:100BD00001D90120009025600098002803D0A81BAF
:100BE0000021FFF7A0FFFFF720FF0700002F01D132
:100BF00001F09AF8FEBC08BC184770B50400002547
:100C0000002C08D0FFF7C3FF00212000FFF78BFF67
:100C1000FFF70BFF0500002D01D101F085F870BC36
:100C200008BC184770B5040000F0B6FD002C02D1D6
:100C30009748006800E020000600F56A00F0B7FD64
:100C4000280070BC08BC184710B40100002300291C
:100C500002D18F4C246800E00C002200D06A10BC46
:100C60007047FEB507000D0000200090042D00D352
:100C7000032500F091FD002F02D18548006800E0B7
:100C800038000400E66BAE423DD0B5420BD9804837
:100C9000006884420DD07E480068C06AA84208D827
:100CA0000120009005E07A480068844201D10120CB
:100CB0000090E06A0190E16AE06B884200D1E56251
:100CC000E563A069C00FC007002802D10420401BC3
:100CD000A0616169142201985043764A80188142CC
:100CE00001D1012000E00020002806D0201D00F0E6
:100CF000D7FC211D654800F0B7FC0098002801D002
:100D000001F012F8C04600F052FDFEBC08BC1847C6
:100D100067480068002803D001205E49086027E08A
:100D200000205C4908606448016800E0491E142006
:100D30004843604A1058002801D1012000E00020FB
:100D40000028F3D114224A435A4BD0184268526803
:100D50004260020008324368934202D142685268FE
:100D600042604268D2684A4B1A6053480160C046EC
:100D7000704770B5050000F00FFD002D02D144480A
:100D8000006800E028000400201D00F089FCA06A33
:100D9000002803D02000183000F082FC211D4048BC
:100DA00000F056FC4820005D012802D100214820B7
:100DB000015500F0FCFC41480068002805D000F017
:100DC000EBFCFFF760FD00F0F2FC31480068844264
:100DD00012D13A480068002802D000F0A5FF0BE0CD
:100DE0002F48006836490968884203D10020284905
:100DF000086001E0FFF78CFF70BC08BC184710B416
:100E0000010000200A00264C5369A34201D10123AE
:100E100000E00023002B11D01B4C936AA34201D1A8
:100E2000012300E00023002B08D1936A002B01D19D
:100E3000012300E00023002B00D0012010BC7047EC
:100E400070B505002C0012480068844219D0002CAF
:100E500017D000F0A1FC2000FFF7D1FF00280ED032
:100E6000201D00F01DFC211D084800F0FDFB084975
:100E7000E06A0968C96A884201D300F055FF00F0B2
:100E800096FC70BC08BC1847FC01004038020040CA
:100E9000640000408800004084000040780000406A
:100EA000240200406C0000406800004094000040B4
:100EB0009C000040840100407C0000408000004015
:100EC00074000040F8B5050000262C000027200023
:100ED000FFF795FF002817D0F748006800280ED1CB
:100EE000F649E06A0968C96A884200D30126201DD4
:100EF00000F0D6FB211DF24800F0B6FB04E0210013
:100F00001831F04800F0A4FB3000F8BC08BC1847CA
:100F100010B516E000F040FCEB48C068C468201D26
:100F200000F0BEFBE9480068401EE8490860E84858
:100F30000068401EE649086000F039FC2000FFF719
:100F4000B9FCE34800680028E4D110BC08BC18478D
:100F5000C046FFF7DDFFDF4800680128F9D900F03F
:100F6000E3FEF6E71CB5DC4800210B0032220091BD
:100F70000190DAA1DB48FFF714FC0400012C0CD12E
:100F800000F0D6FEA01ED84908600120D7490860AD
:100F90000020D749086000F0F5FB1CBC08BC1847CE
:100FA00010B500F0C5FE0020D049086000F0F3FB4A
:100FB00010BC08BC18470021CD4A10687047C348D0
:100FC000006870470100002902D1BC48006800E0B9
:100FD0000800020010003430704770B5040000258E
:100FE000FFF7D5FDC34800680019C2490860FFF744
:100FF0001CFD0500280070BC08BC184770B5050032
:101000000C00AE4801681831280000F02DFB0121CA
:101010002000FFF788FD70BC08BC184770B50600BB
:101020000C0015000120C0072043A449096888610D
:10103000A24801681831300000F00AFB01212800A5
:10104000FFF771FD70BC08BC184770B50600F0686A
:10105000C4682000183000F023FB9748006800287F
:1010600007D1201D00F01CFB211D954800F0FCFA63
:1010700004E021001831934800F0EAFA8F49E06A51
:101080000968C96A884204D9012501209A49086083
:1010900000E00025280070BC08BC184770B50400AB
:1010A0000E000120C00730432060E568200000F0FA
:1010B000F7FA281D00F0F4FA291D814800F0D4FA4F
:1010C0007E49E86A0968C96A884202D901208A49CA
:1010D000086070BC08BC184710B5040000F05CFB49
:1010E00086480068206082480068606000F05FFB0E
:1010F00010BC08BC18478149096801607C4909682F
:101100004160704770B506000C0000F045FB784860
:1011100002687068131A2068401C002801D100255D
:1011200017E0764930680968884204D070689042B8
:1011300001D801250DE02068984207D92068C01A1F
:1011400020603000FFF7D7FF002502E0002020607C
:10115000012500F02CFB280070BC08BC18470120BA
:1011600065490860704755490868704770B50500C3
:101170002C000026002D36D05049E06A0968C96A63
:10118000884229D2A069C00FC007002805D14B486A
:101190000068C06A0421081AA0611422E06A504362
:1011A0004C4A80186169814201D1012000E0002091
:1011B00000280BD0201D00F073FA40480068C06A78
:1011C000E062211D3E4800F04FFA03E03B48006812
:1011D000C06AE062012606E03849E06B0968C96A26
:1011E000884200D20126300070BC08BC184770B598
:1011F00005002C000026002D17D0206C401E206416
:10120000E16BE06A884210D0206C00280DD1201DCF
:1012100000F046FAE06BE0620421E06A081AA0617F
:10122000211D274800F020FA0126300070BC08BCC0
:101230001847FEB506000F00340001200090002E74
:101240002AD0E06BB84201D23D0000E0E56BE06AD5
:10125000A84221D0206C01281ED1E06A0190E562ED
:10126000A069C00FC007002802D10420401BA06164
:101270006169142201985043164A8018814201D1B5
:10128000012000E00020002806D0201D00F008FA10
:10129000211D0B4800F0E8F9FEBC08BC18470749BF
:1012A0000968886905490968C96A0422511A034A0C
:1012B00012689161704700009C000040640000408B
:1012C00038020040FC010040100200407400004061
:1012D00070000040840100409800004049444C45A3
:1012E00000000000510F000094000040800000400A
:1012F0007800004084000040880000408C000040DE
:10130000C6480068002806D0C44909680800403073
:10131000096C491C0160C1480068704770B506003F
:101320000D0000F039FABD480068406C00280BD170
:101330000121BA48006840300172002D04D0280015
:10134000FFF7F1FB00F0F0FC00F031FA00F024FAB6
:10135000B2480068446C002C0AD0002E04D0002053
:10136000AE490968486403E0601EAC4909684864F6
:101370000021AA4800684030017200F018FA2000ED
:1013800070BC08BC1847FFB581B0070014001D00F1
:1013900000F002FAA14800684030007A022812D01A
:1013A0009E49096808004430496CB9430160012135
:1013B0009A48006840300172002D04D02800FFF7E1
:1013C000B2FB00F0B1FC00F0F2F900F0E5F9002CFE
:1013D00003D092480068406C20609048006840301C
:1013E000007A022801D0002608E08C49096808002C
:1013F00044304A6C02998A430260012600218748E2
:1014000000684030017200F0D2F9300005B0F0BC45
:1014100008BC1847FFB583B00D0016001F0001205F
:101420000290039C00F0B8F9002F01D0606C386086
:101430004820005D0190022148200155330000F052
:101440008DFC051604080C0E1700606C28436064C0
:101450000FE0606C401C60640BE0656409E001987B
:10146000022801D0656401E00020029001E000E064
:10147000C046C046019801280ED1201D00F010F989
:10148000211D674800F0F0F86449E06A0968C96AFC
:10149000884201D900F048FC00F089F9029807B0B1
:1014A000F0BC08BC1847FFB583B00D0016001F0044
:1014B00001200190039C00200090002F01D0606C5F
:1014C00038604820005D0290022148200155330019
:1014D00000F044FC051604080C0E1700606C28434D
:1014E00060640FE0606C401C60640BE0656409E0C0
:1014F0000298022801D0656401E00020019001E01B
:1015000000E0C046C046029801281FD14548006847
:10151000002807D1201D00F0C3F8211D404800F02D
:10152000A3F804E0210018313F4800F091F83B494E
:10153000E06A0968C96A884208D90C98002802D074
:1015400001210C980160012038490860019807B01A
:10155000F0BC08BC1847F8B505000E002C000020B0
:1015600000904820075D02210155606C401C6064BA
:10157000012F1DD12B480068002807D1201D00F045
:101580008FF8211D264800F06FF804E02100183183
:10159000254800F05DF82149E06A0968C96A884277
:1015A00006D9002E01D00120306001201F490860BB
:1015B000F8BC08BC184770B50500002D02D11748CB
:1015C000006800E02800060000F0E6F84820805D92
:1015D000022804D1002148208155012400E0002484
:1015E00000F0E5F8200070BC08BC1847F8B504000E
:1015F0000D00002C02D10948006800E02000060020
:1016000000F0CAF805480068476C706CA843706425
:1016100000F0CDF83800F8BC08BC18476400004062
:10162000380200409C000040FC010040880000405F
:101630000100083141600021C94381600100083187
:10164000C1600161002101607047002101617047A4
:1016500042684A6093688B60936859609160086142
:1016600003685B1C0360704710B402000B685C1CCD
:10167000002C01D1106907E01000083000E040683C
:10168000446824689C42FAD944684C604C68A16064
:10169000886041600A611468641C146010BC704763
:1016A00001000A694B6888689860081D09C858607D
:1016B0005068884201D18868506000200861106835
:1016C000401E10601068704730B40300001F0C1DEE
:1016D0000460001F3F4C0460001F0360001F3E4C6D
:1016E0000460001F3D4C0460001F3D4C0460001F5F
:1016F0003C4C0460001F3C4C0460001F3B4C0460E9
:10170000001F3B4C0460001F3A4C0460001F3A4C21
:101710000460001F394C0460001F394C0460001F36
:1017200064100460001F0260001F1F240460CC07C7
:10173000E40F002C03D0202504682C430460001F14
:101740000024046030BC704700212E4AD1602E482E
:1017500011008861032151615114C968102291431D
:101760002A4AD1601100096910221143274A1161E8
:101770002749284A11602421274A11600121214A62
:101780005160704710B5FFF7DFFF00F005FA002049
:1017900010BC08BC1847704710B500F0C9FA1F48C4
:1017A0000068401C1D49086010BC08BC184710B5F3
:1017B0001A48006800280AD018480068401E1749D7
:1017C000086008000068002801D100F0BDFA10BCD4
:1017D00008BC1847AAAAAAAA1212121211111111B2
:1017E0001010101009090909080808080707070759
:1017F00006060606050505050404040403030303A1
:1018000002020202004000E060EA000000F0FFFF78
:10181000601C000000F1FFFF00F2FFFFA00000408D
:10182000454AD008C000454A10600022434B5A6028
:10183000434A444B5A6000221A600100404A4A6001
:101840001A000A607047F8B5040000200090FFF706
:101850009EF93D480068002804D1FFF7E1FF012010
:1018600039490860002C09D008346007400F00286F
:1018700004D06007400F0821081A0419002C31D049
:101880002F4884422ED22D4F3800056801E02F00EA
:101890002D686868A04202D228680028F7D129483C
:1018A00085421FD038680830009028683860686822
:1018B000001B102810D92E196868001B70606C601E
:1018C00071681E4800E00068026852688A42FAD3D4
:1018D000026832600660C0461C4968680968081AD8
:1018E0001A490860FFF7A1F80098F8BC08BC18472F
:1018F00070B506003500002E16D0083D2C00FFF70D
:1019000046F961680D4800E00068026852688A4242
:10191000FAD30268226004600C49606809684018C4
:101920000A490860FFF781F870BC08BC18470748EF
:10193000006870477047000054020040A400004057
:10194000F8330000AC000040B8000040B400004094
:10195000013090E12100004A0020B0E3A03071E0A6
:101960001A00003A203271E00F00003A203471E092
:101970000100003A00C0A0E3200000EAA03371E0BB
:10198000810340200220B2E0203371E001034020B7
:101990000220B2E0A03271E0810240200220B2E0D9
:1019A000203271E0010240200220B2E0A03171E05B
:1019B000810140200220B2E0203171E0010140208D
:1019C0000220B2E0A03071E0810040200220B2E0AD
:1019D000011050E00010A0310200A2E01EFF2FE134
:1019E000022111E20010614240C032E0000060229A
:1019F000203271E01D00003A203471E00F00003AFF
:101A00000113A0E1203471E03F2382E30B00003A90
:101A10000113A0E1203471E03F2682E30700003A81
:101A20000113A0E1203471E03F2982E30113A021DA
:101A30003F2C8223003071E21D00002A2113A021D7
:101A4000A03371E0810340200220B2E0203371E036
:101A5000010340200220B2E0A03271E08102402068
:101A60000220B2E0203271E0010240200220B2E008
:101A7000A03171E0810140200220B2E0203171E00C
:101A8000010140200220B2E0EBFFFF2AA03071E00C
:101A9000810040200220B2E0011050E00010A0318F
:101AA0000200A2E0CCCFB0E1000060420010612251
:101AB0001EFF2FE1CCCFB0E10000604201402DE9D4
:101AC0000000B0E30000A0E10240BDE81EFF2FE1EE
:101AD00070477047704700000E50A0E11A0000EBFD
:101AE00005E0A0E10050B0E10D10A0E10A30A0E156
:101AF0000700C0E300D0A0E160D08DE220402DE9D6
:101B0000C2F9FFEB2040BDE80060A0E30070A0E355
:101B10000080A0E300B0A0E30710C1E305C0A0E18E
:101B2000C009ACE8C009ACE8C009ACE8C009ACE841
:101B300001D0A0E11EFF2FE110B50400C046C04651
:101B40002000FEF75BFB10BC08BC184700009FE5B7
:101B50001EFF2FE14C36004001C08FE21CFF2FE139
:101B600001491820ABDFFEE7260002001EFF2FE12F
:101B70007847C0460020B0E3203171E090FFFF3A83
:101B8000A03271E085FFFF3A203471E07AFFFF3A1E
:101B900000C0A0E399FFFFEA7847C0466C019FE5CB
:101BA000000090E500E090E564019FE50200BEE8DA
:101BB000001080E50100BEE800F06FE1FF7FDEE885
:101BC0000000A0E13CE09EE504F05EE2000000EFD2
:101BD0001EFF2FE104E08EE201002DE900204DE917
:101BE0000000A0E104D04DE20100BDE8004020E982
:101BF00000E0A0E10100BDE8FF7F4EE90000A0E1A8
:101C00003CE04EE200004FE101002EE900019FE5BB
:101C1000000090E501002EE9F0009FE5001090E53E
:101C200000E081E5EC009FE50FE0A0E110FF2FE16F
:101C3000D8009FE5000090E500E090E5D0009FE52A
:101C40000200BEE8001080E50100BEE800F06FE190
:101C5000FF7FDEE80000A0E13CE09EE504F05EE2EC
:101C600001002DE900204DE90000A0E104D04DE283
:101C70000100BDE8004020E900E0A0E10100BDE86E
:101C8000FF7F4EE90000A0E13CE04EE200004FE1A2
:101C900001002EE978009FE5000090E501002EE9A3
:101CA00068009FE5001090E500E081E568009FE591
:101CB0000FE0A0E110FF2FE1000050E30200000A56
:101CC00050009FE50FE0A0E110FF2FE10100A0E32D
:101CD00048109FE5000081E544009FE5000080E595
:101CE00028009FE5000090E500E090E520009FE5DA
:101CF0000200BEE8001080E50100BEE800F06FE1E0
:101D0000FF7FDEE80000A0E13CE09EE504F05EE23B
:101D100064000040A0000040110D00004D090000CB
:101D2000004000E030F0FFFF7847C046A6FFFFEA22
:101D30007847C04600000FE1801080E301F021E108
:101D4000800000E21EFF2FE17847C04600000FE14F
:101D50008000C0E300F021E11EFF2FE17847C0467C
:101D600001C05EE50C0053E10100003A0C30DEE7F3
:101D7000000000EA0330DEE783C08EE01CFF2FE1A5
:101D8000A01D000000000040BC0000004801000051
:101D90005C1E0000BC000040143C0000700100000C
:101DA00000100000110100120100130100140100D5
:101DB0001501001601001701001801001901001A91
:101DC00001001B01001D01001E01001F0101100187
:101DD0000111010112010113010114010115010199
:101DE0001601011701011801011901011A01011B56
:101DF00001011D01011E01011F011E000000000064
:101E000000000000000000000000000000000000D2
:101E100000000000000000000000000000000000C2
:101E200000000000000000000000000000000000B2
:101E300000000000000000000000000000000000A2
:101E40000F2700000000000000000000000000005C
:0C1E500000000000F8330000000000005B
:0400000500000104F2
:00000001FF
